{
  "contractName": "Election",
  "abi": [
    {
      "constant": true,
      "inputs": [
        {
          "name": "",
          "type": "uint256"
        }
      ],
      "name": "candidates",
      "outputs": [
        {
          "name": "id",
          "type": "uint256"
        },
        {
          "name": "name",
          "type": "string"
        },
        {
          "name": "count",
          "type": "uint256"
        }
      ],
      "payable": false,
      "stateMutability": "view",
      "type": "function",
      "signature": "0x3477ee2e"
    },
    {
      "constant": true,
      "inputs": [
        {
          "name": "",
          "type": "address"
        }
      ],
      "name": "voters",
      "outputs": [
        {
          "name": "",
          "type": "bool"
        }
      ],
      "payable": false,
      "stateMutability": "view",
      "type": "function",
      "signature": "0xa3ec138d"
    },
    {
      "constant": true,
      "inputs": [],
      "name": "candidateCount",
      "outputs": [
        {
          "name": "",
          "type": "uint256"
        }
      ],
      "payable": false,
      "stateMutability": "view",
      "type": "function",
      "signature": "0xa9a981a3"
    },
    {
      "constant": true,
      "inputs": [],
      "name": "admin",
      "outputs": [
        {
          "name": "",
          "type": "address"
        }
      ],
      "payable": false,
      "stateMutability": "view",
      "type": "function",
      "signature": "0xf851a440"
    },
    {
      "inputs": [],
      "payable": false,
      "stateMutability": "nonpayable",
      "type": "constructor",
      "signature": "constructor"
    },
    {
      "anonymous": false,
      "inputs": [
        {
          "indexed": false,
          "name": "id",
          "type": "uint256"
        },
        {
          "indexed": false,
          "name": "name",
          "type": "string"
        },
        {
          "indexed": false,
          "name": "count",
          "type": "uint256"
        }
      ],
      "name": "createCandidate",
      "type": "event",
      "signature": "0xb3983add97b538c4ca842c13c49de3be00a0bb40707f14d26372c7d7e4ee6725"
    },
    {
      "constant": false,
      "inputs": [
        {
          "name": "_id",
          "type": "uint256"
        }
      ],
      "name": "vote",
      "outputs": [],
      "payable": false,
      "stateMutability": "nonpayable",
      "type": "function",
      "signature": "0x0121b93f"
    }
  ],
  "bytecode": "0x6080604052600060015534801561001557600080fd5b5060028054600160a060020a0319163317905560408051808201909152600b81527f43616e6469646174652031000000000000000000000000000000000000000000602082015261006e906401000000006100b9810204565b60408051808201909152600b81527f43616e646964617465203200000000000000000000000000000000000000000060208201526100b4906401000000006100b9810204565b610273565b600254600160a060020a031633146100d057600080fd5b60018054810180825560408051606081018252828152602080820186815260008385018190529485528482529290932081518155915180519194929361011b938501929101906101d8565b50604082015181600201559050507fb3983add97b538c4ca842c13c49de3be00a0bb40707f14d26372c7d7e4ee67256001548260006040518084815260200180602001838152602001828103825284818151815260200191508051906020019080838360005b83811015610199578181015183820152602001610181565b50505050905090810190601f1680156101c65780820380516001836020036101000a031916815260200191505b5094505050505060405180910390a150565b828054600181600116156101000203166002900490600052602060002090601f016020900481019282601f1061021957805160ff1916838001178555610246565b82800160010185558215610246579182015b8281111561024657825182559160200191906001019061022b565b50610252929150610256565b5090565b61027091905b80821115610252576000815560010161025c565b90565b610386806102826000396000f3fe60806040526004361061006c5763ffffffff7c01000000000000000000000000000000000000000000000000000000006000350416630121b93f81146100715780633477ee2e1461009d578063a3ec138d1461014d578063a9a981a3146101a1578063f851a440146101c8575b600080fd5b34801561007d57600080fd5b5061009b6004803603602081101561009457600080fd5b5035610206565b005b3480156100a957600080fd5b506100c7600480360360208110156100c057600080fd5b5035610279565b6040518084815260200180602001838152602001828103825284818151815260200191508051906020019080838360005b838110156101105781810151838201526020016100f8565b50505050905090810190601f16801561013d5780820380516001836020036101000a031916815260200191505b5094505050505060405180910390f35b34801561015957600080fd5b5061018d6004803603602081101561017057600080fd5b503573ffffffffffffffffffffffffffffffffffffffff16610323565b604080519115158252519081900360200190f35b3480156101ad57600080fd5b506101b6610338565b60408051918252519081900360200190f35b3480156101d457600080fd5b506101dd61033e565b6040805173ffffffffffffffffffffffffffffffffffffffff9092168252519081900360200190f35b3360009081526003602052604090205460ff1615156001141561022857600080fd5b60008111801561023a57506001548111155b151561024557600080fd5b600090815260208181526040808320600201805460019081019091553384526003909252909120805460ff19169091179055565b600060208181529181526040908190208054600180830180548551600293821615610100026000190190911692909204601f81018790048702830187019095528482529194929390928301828280156103135780601f106102e857610100808354040283529160200191610313565b820191906000526020600020905b8154815290600101906020018083116102f657829003601f168201915b5050505050908060020154905083565b60036020526000908152604090205460ff1681565b60015481565b60025473ffffffffffffffffffffffffffffffffffffffff168156fea165627a7a723058205f90292e27478e2d0a852e722992b9a219c5c07233b6ac019147354c54f9846c0029",
  "source": "// SPDX-License-Identifier: MIT\r\npragma solidity >=0.4.22 <0.9.0;\r\n\r\ncontract Election\r\n{\r\n    //candidate model\r\n    struct Candidate\r\n    {\r\n        uint id;\r\n        string name;\r\n        uint count; \r\n    }\r\n\r\n    //store candidate\r\n    mapping(uint => Candidate) public candidates;\r\n\r\n    //store candidate count \r\n    uint public candidateCount = 0;\r\n\r\n    //admin\r\n    address public admin;\r\n\r\n    //voters\r\n    mapping(address => bool ) public voters;\r\n\r\n    constructor() public {\r\n        admin = msg.sender;\r\n        addCandidate(\"Candidate 1\");\r\n        addCandidate(\"Candidate 2\");\r\n    }\r\n\r\n    event createCandidate\r\n    (\r\n        uint id,\r\n        string name,\r\n        uint count\r\n    );\r\n\r\n    function vote(uint _id) public {\r\n        //valid voter\r\n        require(voters[msg.sender] != true);\r\n\r\n        //valid candidate\r\n        require(_id>0 && _id<=candidateCount);\r\n        candidates[_id].count +=1;\r\n        voters[msg.sender] = true;\r\n    }\r\n\r\n    function addCandidate(string memory _name) private {\r\n        require(msg.sender == admin);\r\n        candidateCount++;\r\n        candidates[candidateCount] = Candidate(candidateCount,_name,0);\r\n        emit createCandidate(candidateCount,_name,0);\r\n\r\n    }\r\n    \r\n}",
  "sourcePath": "C:/Users/Gokuleshwaran/Documents/Gokul/Blockchain/Blockchain/Voting App/contracts/Election.sol",
  "compiler": {
    "name": "solc",
    "version": "0.5.0+commit.1d4f565a.Emscripten.clang"
  },
  "schemaVersion": "3.0.1",
  "updatedAt": "2022-09-28T10:02:18.348Z",
  "devdoc": {
    "methods": {}
  },
  "userdoc": {
    "methods": {}
  }
}