{
  "contractName": "Election",
  "abi": [
    {
      "constant": true,
      "inputs": [
        {
          "name": "",
          "type": "uint256"
        }
      ],
      "name": "candidates",
      "outputs": [
        {
          "name": "id",
          "type": "uint256"
        },
        {
          "name": "name",
          "type": "string"
        },
        {
          "name": "count",
          "type": "uint256"
        }
      ],
      "payable": false,
      "stateMutability": "view",
      "type": "function",
      "signature": "0x3477ee2e"
    },
    {
      "constant": true,
      "inputs": [
        {
          "name": "",
          "type": "address"
        }
      ],
      "name": "voters",
      "outputs": [
        {
          "name": "",
          "type": "bool"
        }
      ],
      "payable": false,
      "stateMutability": "view",
      "type": "function",
      "signature": "0xa3ec138d"
    },
    {
      "constant": true,
      "inputs": [],
      "name": "candidateCount",
      "outputs": [
        {
          "name": "",
          "type": "uint256"
        }
      ],
      "payable": false,
      "stateMutability": "view",
      "type": "function",
      "signature": "0xa9a981a3"
    },
    {
      "constant": true,
      "inputs": [],
      "name": "admin",
      "outputs": [
        {
          "name": "",
          "type": "address"
        }
      ],
      "payable": false,
      "stateMutability": "view",
      "type": "function",
      "signature": "0xf851a440"
    },
    {
      "inputs": [],
      "payable": false,
      "stateMutability": "nonpayable",
      "type": "constructor",
      "signature": "constructor"
    },
    {
      "constant": false,
      "inputs": [
        {
          "name": "_id",
          "type": "uint256"
        }
      ],
      "name": "vote",
      "outputs": [],
      "payable": false,
      "stateMutability": "nonpayable",
      "type": "function",
      "signature": "0x0121b93f"
    },
    {
      "constant": false,
      "inputs": [
        {
          "name": "_name",
          "type": "string"
        }
      ],
      "name": "addCandidate",
      "outputs": [],
      "payable": false,
      "stateMutability": "nonpayable",
      "type": "function",
      "signature": "0x462e91ec"
    }
  ],
  "bytecode": "0x6080604052600060025534801561001557600080fd5b5060018054600160a060020a031916331790556105c4806100376000396000f3fe6080604052600436106100775763ffffffff7c01000000000000000000000000000000000000000000000000000000006000350416630121b93f811461007c5780633477ee2e146100a8578063462e91ec14610158578063a3ec138d1461020b578063a9a981a31461025f578063f851a44014610286575b600080fd5b34801561008857600080fd5b506100a66004803603602081101561009f57600080fd5b50356102c4565b005b3480156100b457600080fd5b506100d2600480360360208110156100cb57600080fd5b503561032e565b6040518084815260200180602001838152602001828103825284818151815260200191508051906020019080838360005b8381101561011b578181015183820152602001610103565b50505050905090810190601f1680156101485780820380516001836020036101000a031916815260200191505b5094505050505060405180910390f35b34801561016457600080fd5b506100a66004803603602081101561017b57600080fd5b81019060208101813564010000000081111561019657600080fd5b8201836020820111156101a857600080fd5b803590602001918460018302840111640100000000831117156101ca57600080fd5b91908080601f0160208091040260200160405190810160405280939291908181526020018383808284376000920191909152509295506103fe945050505050565b34801561021757600080fd5b5061024b6004803603602081101561022e57600080fd5b503573ffffffffffffffffffffffffffffffffffffffff166104c6565b604080519115158252519081900360200190f35b34801561026b57600080fd5b506102746104db565b60408051918252519081900360200190f35b34801561029257600080fd5b5061029b6104e1565b6040805173ffffffffffffffffffffffffffffffffffffffff9092168252519081900360200190f35b3360009081526003602052604090205460ff161515600114156102e657600080fd5b60016000600183038154811015156102fa57fe5b6000918252602080832060039283020160020180549490940190935533825290915260409020805460ff1916600117905550565b600080548290811061033c57fe5b9060005260206000209060030201600091509050806000015490806001018054600181600116156101000203166002900480601f0160208091040260200160405190810160405280929190818152602001828054600181600116156101000203166002900480156103ee5780601f106103c3576101008083540402835291602001916103ee565b820191906000526020600020905b8154815290600101906020018083116103d157829003601f168201915b5050505050908060020154905083565b60015473ffffffffffffffffffffffffffffffffffffffff16331461042257600080fd5b6040805160608101825260025460019081018252602080830185815260009484018590528454928301808655948052835160039093027f290decd9548b62a8d60345a988386fc84ba6bc95484008f6362f93160ef3e5638101938455905180516104b5937f290decd9548b62a8d60345a988386fc84ba6bc95484008f6362f93160ef3e5649093019291909101906104fd565b506040820151816002015550505050565b60036020526000908152604090205460ff1681565b60025481565b60015473ffffffffffffffffffffffffffffffffffffffff1681565b828054600181600116156101000203166002900490600052602060002090601f016020900481019282601f1061053e57805160ff191683800117855561056b565b8280016001018555821561056b579182015b8281111561056b578251825591602001919060010190610550565b5061057792915061057b565b5090565b61059591905b808211156105775760008155600101610581565b9056fea165627a7a72305820ac8d5254ada3a228fdeefb8934af4806c29212613f2376dc144be9f3ce4d8e070029",
  "source": "// SPDX-License-Identifier: MIT\r\npragma solidity >=0.4.22 <0.9.0;\r\n\r\ncontract Election\r\n{\r\n    struct Candidate\r\n    {\r\n        uint256 id;\r\n        string name;\r\n        uint256 count; \r\n    }\r\n\r\n    Candidate [] public candidates;\r\n    address public admin;\r\n    uint256 public candidateCount = 0;\r\n    mapping(address => bool ) public voters;\r\n\r\n    constructor() public {\r\n        admin = msg.sender;\r\n    }\r\n\r\n    function vote(uint256 _id) public {\r\n        require(voters[msg.sender] != true);\r\n        candidates[_id-1].count +=1;\r\n        voters[msg.sender] = true;\r\n    }\r\n\r\n    function addCandidate(string memory _name) public {\r\n        require(msg.sender == admin);\r\n        candidates.push(Candidate(candidateCount+1,_name,0));\r\n    }\r\n    \r\n}",
  "sourcePath": "C:/Users/Gokuleshwaran/Documents/Gokul/Blockchain/Blockchain/Voting App/contracts/Election.sol",
  "compiler": {
    "name": "solc",
    "version": "0.5.0+commit.1d4f565a.Emscripten.clang"
  },
  "schemaVersion": "3.0.1",
  "updatedAt": "2022-09-27T18:46:57.196Z",
  "devdoc": {
    "methods": {}
  },
  "userdoc": {
    "methods": {}
  }
}