{
  "contractName": "Election",
  "abi": [
    {
      "constant": true,
      "inputs": [
        {
          "name": "",
          "type": "uint256"
        }
      ],
      "name": "candidates",
      "outputs": [
        {
          "name": "id",
          "type": "uint256"
        },
        {
          "name": "name",
          "type": "string"
        },
        {
          "name": "count",
          "type": "uint256"
        }
      ],
      "payable": false,
      "stateMutability": "view",
      "type": "function",
      "signature": "0x3477ee2e"
    },
    {
      "constant": true,
      "inputs": [
        {
          "name": "",
          "type": "address"
        }
      ],
      "name": "voters",
      "outputs": [
        {
          "name": "",
          "type": "bool"
        }
      ],
      "payable": false,
      "stateMutability": "view",
      "type": "function",
      "signature": "0xa3ec138d"
    },
    {
      "constant": true,
      "inputs": [],
      "name": "candidateCount",
      "outputs": [
        {
          "name": "",
          "type": "uint256"
        }
      ],
      "payable": false,
      "stateMutability": "view",
      "type": "function",
      "signature": "0xa9a981a3"
    },
    {
      "constant": true,
      "inputs": [],
      "name": "admin",
      "outputs": [
        {
          "name": "",
          "type": "address"
        }
      ],
      "payable": false,
      "stateMutability": "view",
      "type": "function",
      "signature": "0xf851a440"
    },
    {
      "inputs": [],
      "payable": false,
      "stateMutability": "nonpayable",
      "type": "constructor",
      "signature": "constructor"
    },
    {
      "anonymous": false,
      "inputs": [
        {
          "indexed": true,
          "name": "_candidateId",
          "type": "uint256"
        }
      ],
      "name": "votedEvent",
      "type": "event",
      "signature": "0xfff3c900d938d21d0990d786e819f29b8d05c1ef587b462b939609625b684b16"
    },
    {
      "constant": false,
      "inputs": [
        {
          "name": "_candidateId",
          "type": "uint256"
        }
      ],
      "name": "vote",
      "outputs": [],
      "payable": false,
      "stateMutability": "nonpayable",
      "type": "function",
      "signature": "0x0121b93f"
    }
  ],
  "bytecode": "0x6080604052600060015534801561001557600080fd5b5060408051808201909152600b81527f43616e6469646174652031000000000000000000000000000000000000000000602082015261005c906401000000006100a7810204565b60408051808201909152600b81527f43616e646964617465203200000000000000000000000000000000000000000060208201526100a2906401000000006100a7810204565b61019e565b6001805481018082556040805160608101825282815260208082018681526000838501819052948552848252929093208151815591518051919492936100f293850192910190610103565b506040820151816002015590505050565b828054600181600116156101000203166002900490600052602060002090601f016020900481019282601f1061014457805160ff1916838001178555610171565b82800160010185558215610171579182015b82811115610171578251825591602001919060010190610156565b5061017d929150610181565b5090565b61019b91905b8082111561017d5760008155600101610187565b90565b610387806101ad6000396000f3fe60806040526004361061006c5763ffffffff7c01000000000000000000000000000000000000000000000000000000006000350416630121b93f81146100715780633477ee2e1461009d578063a3ec138d1461014d578063a9a981a3146101a1578063f851a440146101c8575b600080fd5b34801561007d57600080fd5b5061009b6004803603602081101561009457600080fd5b5035610206565b005b3480156100a957600080fd5b506100c7600480360360208110156100c057600080fd5b503561027a565b6040518084815260200180602001838152602001828103825284818151815260200191508051906020019080838360005b838110156101105781810151838201526020016100f8565b50505050905090810190601f16801561013d5780820380516001836020036101000a031916815260200191505b5094505050505060405180910390f35b34801561015957600080fd5b5061018d6004803603602081101561017057600080fd5b503573ffffffffffffffffffffffffffffffffffffffff16610324565b604080519115158252519081900360200190f35b3480156101ad57600080fd5b506101b6610339565b60408051918252519081900360200190f35b3480156101d457600080fd5b506101dd61033f565b6040805173ffffffffffffffffffffffffffffffffffffffff9092168252519081900360200190f35b3360009081526003602052604090205460ff1615156001141561022857600080fd5b60008111801561023a57506001548111155b151561024557600080fd5b336000908152600360209081526040808320805460ff1916600190811790915593835290829052902060020180549091019055565b600060208181529181526040908190208054600180830180548551600293821615610100026000190190911692909204601f81018790048702830187019095528482529194929390928301828280156103145780601f106102e957610100808354040283529160200191610314565b820191906000526020600020905b8154815290600101906020018083116102f757829003601f168201915b5050505050908060020154905083565b60036020526000908152604090205460ff1681565b60015481565b60025473ffffffffffffffffffffffffffffffffffffffff168156fea165627a7a7230582027a96cfec31efe9cba815698e62fdc91cd2a9be8ce72cd9ba548f4beb7466e2a0029",
  "source": "// SPDX-License-Identifier: MIT\r\npragma solidity >=0.4.22 <0.9.0;\r\n\r\ncontract Election\r\n{\r\n    //candidate model\r\n    struct Candidate\r\n    {\r\n        uint id;\r\n        string name;\r\n        uint count; \r\n    }\r\n\r\n    //store candidate\r\n    mapping(uint => Candidate) public candidates;\r\n\r\n    //store candidate count \r\n    uint public candidateCount = 0;\r\n\r\n    //admin\r\n    address public admin;\r\n\r\n    //voters\r\n    mapping(address => bool ) public voters;\r\n\r\n    constructor() public {\r\n        addCandidate(\"Candidate 1\");\r\n        addCandidate(\"Candidate 2\");\r\n    }\r\n\r\n    event votedEvent (\r\n        uint indexed _candidateId\r\n    );\r\n\r\n    function vote (uint _candidateId) public {\r\n        // require that they haven't voted before\r\n        require(voters[msg.sender] != true);\r\n\r\n        // require a valid candidate\r\n        require(_candidateId > 0 && _candidateId <= candidateCount);\r\n\r\n        // record that voter has voted\r\n        voters[msg.sender] = true;\r\n\r\n        // update candidate vote Count\r\n        candidates[_candidateId].count ++;\r\n\r\n        // trigger voted event\r\n        //emit votedEvent(_candidateId);\r\n    }\r\n\r\n    function addCandidate (string memory _name) private {\r\n        candidateCount ++;\r\n        candidates[candidateCount] = Candidate(candidateCount, _name, 0);\r\n    }   \r\n}",
  "sourcePath": "C:/Users/Gokuleshwaran/Documents/Gokul/Blockchain/Blockchain/Voting App/contracts/Election.sol",
  "compiler": {
    "name": "solc",
    "version": "0.5.0+commit.1d4f565a.Emscripten.clang"
  },
  "schemaVersion": "3.0.1",
  "updatedAt": "2022-09-29T17:49:14.906Z",
  "devdoc": {
    "methods": {}
  },
  "userdoc": {
    "methods": {}
  }
}