{
  "_format": "hh-sol-artifact-1",
  "contractName": "MusicNFTMarketplace",
  "sourceName": "src/backend/contracts/MusicNFTMarketplace.sol",
  "abi": [
    {
      "anonymous": false,
      "inputs": [
        {
          "indexed": true,
          "internalType": "address",
          "name": "owner",
          "type": "address"
        },
        {
          "indexed": true,
          "internalType": "address",
          "name": "approved",
          "type": "address"
        },
        {
          "indexed": true,
          "internalType": "uint256",
          "name": "tokenId",
          "type": "uint256"
        }
      ],
      "name": "Approval",
      "type": "event"
    },
    {
      "anonymous": false,
      "inputs": [
        {
          "indexed": true,
          "internalType": "address",
          "name": "owner",
          "type": "address"
        },
        {
          "indexed": true,
          "internalType": "address",
          "name": "operator",
          "type": "address"
        },
        {
          "indexed": false,
          "internalType": "bool",
          "name": "approved",
          "type": "bool"
        }
      ],
      "name": "ApprovalForAll",
      "type": "event"
    },
    {
      "anonymous": false,
      "inputs": [
        {
          "indexed": true,
          "internalType": "address",
          "name": "previousOwner",
          "type": "address"
        },
        {
          "indexed": true,
          "internalType": "address",
          "name": "newOwner",
          "type": "address"
        }
      ],
      "name": "OwnershipTransferred",
      "type": "event"
    },
    {
      "anonymous": false,
      "inputs": [
        {
          "indexed": true,
          "internalType": "address",
          "name": "from",
          "type": "address"
        },
        {
          "indexed": true,
          "internalType": "address",
          "name": "to",
          "type": "address"
        },
        {
          "indexed": true,
          "internalType": "uint256",
          "name": "tokenId",
          "type": "uint256"
        }
      ],
      "name": "Transfer",
      "type": "event"
    },
    {
      "inputs": [
        {
          "internalType": "address",
          "name": "to",
          "type": "address"
        },
        {
          "internalType": "uint256",
          "name": "tokenId",
          "type": "uint256"
        }
      ],
      "name": "approve",
      "outputs": [],
      "stateMutability": "nonpayable",
      "type": "function"
    },
    {
      "inputs": [
        {
          "internalType": "address",
          "name": "owner",
          "type": "address"
        }
      ],
      "name": "balanceOf",
      "outputs": [
        {
          "internalType": "uint256",
          "name": "",
          "type": "uint256"
        }
      ],
      "stateMutability": "view",
      "type": "function"
    },
    {
      "inputs": [],
      "name": "baseURI",
      "outputs": [
        {
          "internalType": "string",
          "name": "",
          "type": "string"
        }
      ],
      "stateMutability": "view",
      "type": "function"
    },
    {
      "inputs": [
        {
          "internalType": "uint256",
          "name": "tokenId",
          "type": "uint256"
        }
      ],
      "name": "getApproved",
      "outputs": [
        {
          "internalType": "address",
          "name": "",
          "type": "address"
        }
      ],
      "stateMutability": "view",
      "type": "function"
    },
    {
      "inputs": [
        {
          "internalType": "address",
          "name": "owner",
          "type": "address"
        },
        {
          "internalType": "address",
          "name": "operator",
          "type": "address"
        }
      ],
      "name": "isApprovedForAll",
      "outputs": [
        {
          "internalType": "bool",
          "name": "",
          "type": "bool"
        }
      ],
      "stateMutability": "view",
      "type": "function"
    },
    {
      "inputs": [],
      "name": "name",
      "outputs": [
        {
          "internalType": "string",
          "name": "",
          "type": "string"
        }
      ],
      "stateMutability": "view",
      "type": "function"
    },
    {
      "inputs": [],
      "name": "owner",
      "outputs": [
        {
          "internalType": "address",
          "name": "",
          "type": "address"
        }
      ],
      "stateMutability": "view",
      "type": "function"
    },
    {
      "inputs": [
        {
          "internalType": "uint256",
          "name": "tokenId",
          "type": "uint256"
        }
      ],
      "name": "ownerOf",
      "outputs": [
        {
          "internalType": "address",
          "name": "",
          "type": "address"
        }
      ],
      "stateMutability": "view",
      "type": "function"
    },
    {
      "inputs": [],
      "name": "renounceOwnership",
      "outputs": [],
      "stateMutability": "nonpayable",
      "type": "function"
    },
    {
      "inputs": [
        {
          "internalType": "address",
          "name": "from",
          "type": "address"
        },
        {
          "internalType": "address",
          "name": "to",
          "type": "address"
        },
        {
          "internalType": "uint256",
          "name": "tokenId",
          "type": "uint256"
        }
      ],
      "name": "safeTransferFrom",
      "outputs": [],
      "stateMutability": "nonpayable",
      "type": "function"
    },
    {
      "inputs": [
        {
          "internalType": "address",
          "name": "from",
          "type": "address"
        },
        {
          "internalType": "address",
          "name": "to",
          "type": "address"
        },
        {
          "internalType": "uint256",
          "name": "tokenId",
          "type": "uint256"
        },
        {
          "internalType": "bytes",
          "name": "data",
          "type": "bytes"
        }
      ],
      "name": "safeTransferFrom",
      "outputs": [],
      "stateMutability": "nonpayable",
      "type": "function"
    },
    {
      "inputs": [
        {
          "internalType": "address",
          "name": "operator",
          "type": "address"
        },
        {
          "internalType": "bool",
          "name": "approved",
          "type": "bool"
        }
      ],
      "name": "setApprovalForAll",
      "outputs": [],
      "stateMutability": "nonpayable",
      "type": "function"
    },
    {
      "inputs": [
        {
          "internalType": "bytes4",
          "name": "interfaceId",
          "type": "bytes4"
        }
      ],
      "name": "supportsInterface",
      "outputs": [
        {
          "internalType": "bool",
          "name": "",
          "type": "bool"
        }
      ],
      "stateMutability": "view",
      "type": "function"
    },
    {
      "inputs": [],
      "name": "symbol",
      "outputs": [
        {
          "internalType": "string",
          "name": "",
          "type": "string"
        }
      ],
      "stateMutability": "view",
      "type": "function"
    },
    {
      "inputs": [
        {
          "internalType": "uint256",
          "name": "tokenId",
          "type": "uint256"
        }
      ],
      "name": "tokenURI",
      "outputs": [
        {
          "internalType": "string",
          "name": "",
          "type": "string"
        }
      ],
      "stateMutability": "view",
      "type": "function"
    },
    {
      "inputs": [
        {
          "internalType": "address",
          "name": "from",
          "type": "address"
        },
        {
          "internalType": "address",
          "name": "to",
          "type": "address"
        },
        {
          "internalType": "uint256",
          "name": "tokenId",
          "type": "uint256"
        }
      ],
      "name": "transferFrom",
      "outputs": [],
      "stateMutability": "nonpayable",
      "type": "function"
    },
    {
      "inputs": [
        {
          "internalType": "address",
          "name": "newOwner",
          "type": "address"
        }
      ],
      "name": "transferOwnership",
      "outputs": [],
      "stateMutability": "nonpayable",
      "type": "function"
    }
  ],
  "bytecode": "0x60806040526040518060800160405280605981526020016200289c605991396007908051906020019062000035929190620001d8565b503480156200004357600080fd5b506040518060400160405280600881526020017f6e7063546f6b656e0000000000000000000000000000000000000000000000008152506040518060400160405280600381526020017f4e504300000000000000000000000000000000000000000000000000000000008152508160009080519060200190620000c8929190620001d8565b508060019080519060200190620000e1929190620001d8565b50505062000104620000f86200010a60201b60201c565b6200011260201b60201c565b620002ed565b600033905090565b6000600660009054906101000a900473ffffffffffffffffffffffffffffffffffffffff16905081600660006101000a81548173ffffffffffffffffffffffffffffffffffffffff021916908373ffffffffffffffffffffffffffffffffffffffff1602179055508173ffffffffffffffffffffffffffffffffffffffff168173ffffffffffffffffffffffffffffffffffffffff167f8be0079c531659141344cd1fd0a4f28419497f9722a3daafe3b4186f6b6457e060405160405180910390a35050565b828054620001e69062000288565b90600052602060002090601f0160209004810192826200020a576000855562000256565b82601f106200022557805160ff191683800117855562000256565b8280016001018555821562000256579182015b828111156200025557825182559160200191906001019062000238565b5b50905062000265919062000269565b5090565b5b80821115620002845760008160009055506001016200026a565b5090565b60006002820490506001821680620002a157607f821691505b60208210811415620002b857620002b7620002be565b5b50919050565b7f4e487b7100000000000000000000000000000000000000000000000000000000600052602260045260246000fd5b61259f80620002fd6000396000f3fe608060405234801561001057600080fd5b506004361061010b5760003560e01c806370a08231116100a2578063a22cb46511610071578063a22cb465146102a6578063b88d4fde146102c2578063c87b56dd146102de578063e985e9c51461030e578063f2fde38b1461033e5761010b565b806370a0823114610230578063715018a6146102605780638da5cb5b1461026a57806395d89b41146102885761010b565b806323b872dd116100de57806323b872dd146101aa57806342842e0e146101c65780636352211e146101e25780636c0360eb146102125761010b565b806301ffc9a71461011057806306fdde0314610140578063081812fc1461015e578063095ea7b31461018e575b600080fd5b61012a60048036038101906101259190611957565b61035a565b6040516101379190611cae565b60405180910390f35b61014861043c565b6040516101559190611cc9565b60405180910390f35b610178600480360381019061017391906119a9565b6104ce565b6040516101859190611c47565b60405180910390f35b6101a860048036038101906101a3919061191b565b610514565b005b6101c460048036038101906101bf9190611815565b61062c565b005b6101e060048036038101906101db9190611815565b61068c565b005b6101fc60048036038101906101f791906119a9565b6106ac565b6040516102099190611c47565b60405180910390f35b61021a61075e565b6040516102279190611cc9565b60405180910390f35b61024a600480360381019061024591906117b0565b6107ec565b6040516102579190611e4b565b60405180910390f35b6102686108a4565b005b6102726108b8565b60405161027f9190611c47565b60405180910390f35b6102906108e2565b60405161029d9190611cc9565b60405180910390f35b6102c060048036038101906102bb91906118df565b610974565b005b6102dc60048036038101906102d79190611864565b61098a565b005b6102f860048036038101906102f391906119a9565b6109ec565b6040516103059190611cc9565b60405180910390f35b610328600480360381019061032391906117d9565b610a54565b6040516103359190611cae565b60405180910390f35b610358600480360381019061035391906117b0565b610ae8565b005b60007f80ac58cd000000000000000000000000000000000000000000000000000000007bffffffffffffffffffffffffffffffffffffffffffffffffffffffff1916827bffffffffffffffffffffffffffffffffffffffffffffffffffffffff1916148061042557507f5b5e139f000000000000000000000000000000000000000000000000000000007bffffffffffffffffffffffffffffffffffffffffffffffffffffffff1916827bffffffffffffffffffffffffffffffffffffffffffffffffffffffff1916145b80610435575061043482610b6c565b5b9050919050565b60606000805461044b90612070565b80601f016020809104026020016040519081016040528092919081815260200182805461047790612070565b80156104c45780601f10610499576101008083540402835291602001916104c4565b820191906000526020600020905b8154815290600101906020018083116104a757829003601f168201915b5050505050905090565b60006104d982610bd6565b6004600083815260200190815260200160002060009054906101000a900473ffffffffffffffffffffffffffffffffffffffff169050919050565b600061051f826106ac565b90508073ffffffffffffffffffffffffffffffffffffffff168373ffffffffffffffffffffffffffffffffffffffff161415610590576040517f08c379a000000000000000000000000000000000000000000000000000000000815260040161058790611e0b565b60405180910390fd5b8073ffffffffffffffffffffffffffffffffffffffff166105af610c21565b73ffffffffffffffffffffffffffffffffffffffff1614806105de57506105dd816105d8610c21565b610a54565b5b61061d576040517f08c379a000000000000000000000000000000000000000000000000000000000815260040161061490611dab565b60405180910390fd5b6106278383610c29565b505050565b61063d610637610c21565b82610ce2565b61067c576040517f08c379a000000000000000000000000000000000000000000000000000000000815260040161067390611e2b565b60405180910390fd5b610687838383610d77565b505050565b6106a78383836040518060200160405280600081525061098a565b505050565b6000806002600084815260200190815260200160002060009054906101000a900473ffffffffffffffffffffffffffffffffffffffff169050600073ffffffffffffffffffffffffffffffffffffffff168173ffffffffffffffffffffffffffffffffffffffff161415610755576040517f08c379a000000000000000000000000000000000000000000000000000000000815260040161074c90611deb565b60405180910390fd5b80915050919050565b6007805461076b90612070565b80601f016020809104026020016040519081016040528092919081815260200182805461079790612070565b80156107e45780601f106107b9576101008083540402835291602001916107e4565b820191906000526020600020905b8154815290600101906020018083116107c757829003601f168201915b505050505081565b60008073ffffffffffffffffffffffffffffffffffffffff168273ffffffffffffffffffffffffffffffffffffffff16141561085d576040517f08c379a000000000000000000000000000000000000000000000000000000000815260040161085490611d8b565b60405180910390fd5b600360008373ffffffffffffffffffffffffffffffffffffffff1673ffffffffffffffffffffffffffffffffffffffff168152602001908152602001600020549050919050565b6108ac610fde565b6108b6600061105c565b565b6000600660009054906101000a900473ffffffffffffffffffffffffffffffffffffffff16905090565b6060600180546108f190612070565b80601f016020809104026020016040519081016040528092919081815260200182805461091d90612070565b801561096a5780601f1061093f5761010080835404028352916020019161096a565b820191906000526020600020905b81548152906001019060200180831161094d57829003601f168201915b5050505050905090565b61098661097f610c21565b8383611122565b5050565b61099b610995610c21565b83610ce2565b6109da576040517f08c379a00000000000000000000000000000000000000000000000000000000081526004016109d190611e2b565b60405180910390fd5b6109e68484848461128f565b50505050565b60606109f782610bd6565b6000610a016112eb565b90506000815111610a215760405180602001604052806000815250610a4c565b80610a2b84611302565b604051602001610a3c929190611c23565b6040516020818303038152906040525b915050919050565b6000600560008473ffffffffffffffffffffffffffffffffffffffff1673ffffffffffffffffffffffffffffffffffffffff16815260200190815260200160002060008373ffffffffffffffffffffffffffffffffffffffff1673ffffffffffffffffffffffffffffffffffffffff16815260200190815260200160002060009054906101000a900460ff16905092915050565b610af0610fde565b600073ffffffffffffffffffffffffffffffffffffffff168173ffffffffffffffffffffffffffffffffffffffff161415610b60576040517f08c379a0000000000000000000000000000000000000000000000000000000008152600401610b5790611d0b565b60405180910390fd5b610b698161105c565b50565b60007f01ffc9a7000000000000000000000000000000000000000000000000000000007bffffffffffffffffffffffffffffffffffffffffffffffffffffffff1916827bffffffffffffffffffffffffffffffffffffffffffffffffffffffff1916149050919050565b610bdf816114af565b610c1e576040517f08c379a0000000000000000000000000000000000000000000000000000000008152600401610c1590611deb565b60405180910390fd5b50565b600033905090565b816004600083815260200190815260200160002060006101000a81548173ffffffffffffffffffffffffffffffffffffffff021916908373ffffffffffffffffffffffffffffffffffffffff160217905550808273ffffffffffffffffffffffffffffffffffffffff16610c9c836106ac565b73ffffffffffffffffffffffffffffffffffffffff167f8c5be1e5ebec7d5bd14f71427d1e84f3dd0314c0f7b2291e5b200ac8c7c3b92560405160405180910390a45050565b600080610cee836106ac565b90508073ffffffffffffffffffffffffffffffffffffffff168473ffffffffffffffffffffffffffffffffffffffff161480610d305750610d2f8185610a54565b5b80610d6e57508373ffffffffffffffffffffffffffffffffffffffff16610d56846104ce565b73ffffffffffffffffffffffffffffffffffffffff16145b91505092915050565b8273ffffffffffffffffffffffffffffffffffffffff16610d97826106ac565b73ffffffffffffffffffffffffffffffffffffffff1614610ded576040517f08c379a0000000000000000000000000000000000000000000000000000000008152600401610de490611d2b565b60405180910390fd5b600073ffffffffffffffffffffffffffffffffffffffff168273ffffffffffffffffffffffffffffffffffffffff161415610e5d576040517f08c379a0000000000000000000000000000000000000000000000000000000008152600401610e5490611d4b565b60405180910390fd5b610e6883838361151b565b610e73600082610c29565b6001600360008573ffffffffffffffffffffffffffffffffffffffff1673ffffffffffffffffffffffffffffffffffffffff1681526020019081526020016000206000828254610ec39190611f86565b925050819055506001600360008473ffffffffffffffffffffffffffffffffffffffff1673ffffffffffffffffffffffffffffffffffffffff1681526020019081526020016000206000828254610f1a9190611eff565b92505081905550816002600083815260200190815260200160002060006101000a81548173ffffffffffffffffffffffffffffffffffffffff021916908373ffffffffffffffffffffffffffffffffffffffff160217905550808273ffffffffffffffffffffffffffffffffffffffff168473ffffffffffffffffffffffffffffffffffffffff167fddf252ad1be2c89b69c2b068fc378daa952ba7f163c4a11628f55a4df523b3ef60405160405180910390a4610fd9838383611520565b505050565b610fe6610c21565b73ffffffffffffffffffffffffffffffffffffffff166110046108b8565b73ffffffffffffffffffffffffffffffffffffffff161461105a576040517f08c379a000000000000000000000000000000000000000000000000000000000815260040161105190611dcb565b60405180910390fd5b565b6000600660009054906101000a900473ffffffffffffffffffffffffffffffffffffffff16905081600660006101000a81548173ffffffffffffffffffffffffffffffffffffffff021916908373ffffffffffffffffffffffffffffffffffffffff1602179055508173ffffffffffffffffffffffffffffffffffffffff168173ffffffffffffffffffffffffffffffffffffffff167f8be0079c531659141344cd1fd0a4f28419497f9722a3daafe3b4186f6b6457e060405160405180910390a35050565b8173ffffffffffffffffffffffffffffffffffffffff168373ffffffffffffffffffffffffffffffffffffffff161415611191576040517f08c379a000000000000000000000000000000000000000000000000000000000815260040161118890611d6b565b60405180910390fd5b80600560008573ffffffffffffffffffffffffffffffffffffffff1673ffffffffffffffffffffffffffffffffffffffff16815260200190815260200160002060008473ffffffffffffffffffffffffffffffffffffffff1673ffffffffffffffffffffffffffffffffffffffff16815260200190815260200160002060006101000a81548160ff0219169083151502179055508173ffffffffffffffffffffffffffffffffffffffff168373ffffffffffffffffffffffffffffffffffffffff167f17307eab39ab6107e8899845ad3d59bd9653f200f220920489ca2b5937696c31836040516112829190611cae565b60405180910390a3505050565b61129a848484610d77565b6112a684848484611525565b6112e5576040517f08c379a00000000000000000000000000000000000000000000000000000000081526004016112dc90611ceb565b60405180910390fd5b50505050565b606060405180602001604052806000815250905090565b6060600082141561134a576040518060400160405280600181526020017f300000000000000000000000000000000000000000000000000000000000000081525090506114aa565b600082905060005b6000821461137c578080611365906120d3565b915050600a826113759190611f55565b9150611352565b60008167ffffffffffffffff8111156113be577f4e487b7100000000000000000000000000000000000000000000000000000000600052604160045260246000fd5b6040519080825280601f01601f1916602001820160405280156113f05781602001600182028036833780820191505090505b5090505b600085146114a3576001826114099190611f86565b9150600a85611418919061211c565b60306114249190611eff565b60f81b818381518110611460577f4e487b7100000000000000000000000000000000000000000000000000000000600052603260045260246000fd5b60200101907effffffffffffffffffffffffffffffffffffffffffffffffffffffffffffff1916908160001a905350600a8561149c9190611f55565b94506113f4565b8093505050505b919050565b60008073ffffffffffffffffffffffffffffffffffffffff166002600084815260200190815260200160002060009054906101000a900473ffffffffffffffffffffffffffffffffffffffff1673ffffffffffffffffffffffffffffffffffffffff1614159050919050565b505050565b505050565b60006115468473ffffffffffffffffffffffffffffffffffffffff166116bc565b156116af578373ffffffffffffffffffffffffffffffffffffffff1663150b7a0261156f610c21565b8786866040518563ffffffff1660e01b81526004016115919493929190611c62565b602060405180830381600087803b1580156115ab57600080fd5b505af19250505080156115dc57506040513d601f19601f820116820180604052508101906115d99190611980565b60015b61165f573d806000811461160c576040519150601f19603f3d011682016040523d82523d6000602084013e611611565b606091505b50600081511415611657576040517f08c379a000000000000000000000000000000000000000000000000000000000815260040161164e90611ceb565b60405180910390fd5b805181602001fd5b63150b7a0260e01b7bffffffffffffffffffffffffffffffffffffffffffffffffffffffff1916817bffffffffffffffffffffffffffffffffffffffffffffffffffffffff1916149150506116b4565b600190505b949350505050565b6000808273ffffffffffffffffffffffffffffffffffffffff163b119050919050565b60006116f26116ed84611e8b565b611e66565b90508281526020810184848401111561170a57600080fd5b61171584828561202e565b509392505050565b60008135905061172c8161250d565b92915050565b60008135905061174181612524565b92915050565b6000813590506117568161253b565b92915050565b60008151905061176b8161253b565b92915050565b600082601f83011261178257600080fd5b81356117928482602086016116df565b91505092915050565b6000813590506117aa81612552565b92915050565b6000602082840312156117c257600080fd5b60006117d08482850161171d565b91505092915050565b600080604083850312156117ec57600080fd5b60006117fa8582860161171d565b925050602061180b8582860161171d565b9150509250929050565b60008060006060848603121561182a57600080fd5b60006118388682870161171d565b93505060206118498682870161171d565b925050604061185a8682870161179b565b9150509250925092565b6000806000806080858703121561187a57600080fd5b60006118888782880161171d565b94505060206118998782880161171d565b93505060406118aa8782880161179b565b925050606085013567ffffffffffffffff8111156118c757600080fd5b6118d387828801611771565b91505092959194509250565b600080604083850312156118f257600080fd5b60006119008582860161171d565b925050602061191185828601611732565b9150509250929050565b6000806040838503121561192e57600080fd5b600061193c8582860161171d565b925050602061194d8582860161179b565b9150509250929050565b60006020828403121561196957600080fd5b600061197784828501611747565b91505092915050565b60006020828403121561199257600080fd5b60006119a08482850161175c565b91505092915050565b6000602082840312156119bb57600080fd5b60006119c98482850161179b565b91505092915050565b6119db81611fba565b82525050565b6119ea81611fcc565b82525050565b60006119fb82611ebc565b611a058185611ed2565b9350611a1581856020860161203d565b611a1e81612209565b840191505092915050565b6000611a3482611ec7565b611a3e8185611ee3565b9350611a4e81856020860161203d565b611a5781612209565b840191505092915050565b6000611a6d82611ec7565b611a778185611ef4565b9350611a8781856020860161203d565b80840191505092915050565b6000611aa0603283611ee3565b9150611aab8261221a565b604082019050919050565b6000611ac3602683611ee3565b9150611ace82612269565b604082019050919050565b6000611ae6602583611ee3565b9150611af1826122b8565b604082019050919050565b6000611b09602483611ee3565b9150611b1482612307565b604082019050919050565b6000611b2c601983611ee3565b9150611b3782612356565b602082019050919050565b6000611b4f602983611ee3565b9150611b5a8261237f565b604082019050919050565b6000611b72603e83611ee3565b9150611b7d826123ce565b604082019050919050565b6000611b95602083611ee3565b9150611ba08261241d565b602082019050919050565b6000611bb8601883611ee3565b9150611bc382612446565b602082019050919050565b6000611bdb602183611ee3565b9150611be68261246f565b604082019050919050565b6000611bfe602e83611ee3565b9150611c09826124be565b604082019050919050565b611c1d81612024565b82525050565b6000611c2f8285611a62565b9150611c3b8284611a62565b91508190509392505050565b6000602082019050611c5c60008301846119d2565b92915050565b6000608082019050611c7760008301876119d2565b611c8460208301866119d2565b611c916040830185611c14565b8181036060830152611ca381846119f0565b905095945050505050565b6000602082019050611cc360008301846119e1565b92915050565b60006020820190508181036000830152611ce38184611a29565b905092915050565b60006020820190508181036000830152611d0481611a93565b9050919050565b60006020820190508181036000830152611d2481611ab6565b9050919050565b60006020820190508181036000830152611d4481611ad9565b9050919050565b60006020820190508181036000830152611d6481611afc565b9050919050565b60006020820190508181036000830152611d8481611b1f565b9050919050565b60006020820190508181036000830152611da481611b42565b9050919050565b60006020820190508181036000830152611dc481611b65565b9050919050565b60006020820190508181036000830152611de481611b88565b9050919050565b60006020820190508181036000830152611e0481611bab565b9050919050565b60006020820190508181036000830152611e2481611bce565b9050919050565b60006020820190508181036000830152611e4481611bf1565b9050919050565b6000602082019050611e606000830184611c14565b92915050565b6000611e70611e81565b9050611e7c82826120a2565b919050565b6000604051905090565b600067ffffffffffffffff821115611ea657611ea56121da565b5b611eaf82612209565b9050602081019050919050565b600081519050919050565b600081519050919050565b600082825260208201905092915050565b600082825260208201905092915050565b600081905092915050565b6000611f0a82612024565b9150611f1583612024565b9250827fffffffffffffffffffffffffffffffffffffffffffffffffffffffffffffffff03821115611f4a57611f4961214d565b5b828201905092915050565b6000611f6082612024565b9150611f6b83612024565b925082611f7b57611f7a61217c565b5b828204905092915050565b6000611f9182612024565b9150611f9c83612024565b925082821015611faf57611fae61214d565b5b828203905092915050565b6000611fc582612004565b9050919050565b60008115159050919050565b60007fffffffff0000000000000000000000000000000000000000000000000000000082169050919050565b600073ffffffffffffffffffffffffffffffffffffffff82169050919050565b6000819050919050565b82818337600083830152505050565b60005b8381101561205b578082015181840152602081019050612040565b8381111561206a576000848401525b50505050565b6000600282049050600182168061208857607f821691505b6020821081141561209c5761209b6121ab565b5b50919050565b6120ab82612209565b810181811067ffffffffffffffff821117156120ca576120c96121da565b5b80604052505050565b60006120de82612024565b91507fffffffffffffffffffffffffffffffffffffffffffffffffffffffffffffffff8214156121115761211061214d565b5b600182019050919050565b600061212782612024565b915061213283612024565b9250826121425761214161217c565b5b828206905092915050565b7f4e487b7100000000000000000000000000000000000000000000000000000000600052601160045260246000fd5b7f4e487b7100000000000000000000000000000000000000000000000000000000600052601260045260246000fd5b7f4e487b7100000000000000000000000000000000000000000000000000000000600052602260045260246000fd5b7f4e487b7100000000000000000000000000000000000000000000000000000000600052604160045260246000fd5b6000601f19601f8301169050919050565b7f4552433732313a207472616e7366657220746f206e6f6e20455243373231526560008201527f63656976657220696d706c656d656e7465720000000000000000000000000000602082015250565b7f4f776e61626c653a206e6577206f776e657220697320746865207a65726f206160008201527f6464726573730000000000000000000000000000000000000000000000000000602082015250565b7f4552433732313a207472616e736665722066726f6d20696e636f72726563742060008201527f6f776e6572000000000000000000000000000000000000000000000000000000602082015250565b7f4552433732313a207472616e7366657220746f20746865207a65726f2061646460008201527f7265737300000000000000000000000000000000000000000000000000000000602082015250565b7f4552433732313a20617070726f766520746f2063616c6c657200000000000000600082015250565b7f4552433732313a2061646472657373207a65726f206973206e6f74206120766160008201527f6c6964206f776e65720000000000000000000000000000000000000000000000602082015250565b7f4552433732313a20617070726f76652063616c6c6572206973206e6f7420746f60008201527f6b656e206f776e6572206e6f7220617070726f76656420666f7220616c6c0000602082015250565b7f4f776e61626c653a2063616c6c6572206973206e6f7420746865206f776e6572600082015250565b7f4552433732313a20696e76616c696420746f6b656e2049440000000000000000600082015250565b7f4552433732313a20617070726f76616c20746f2063757272656e74206f776e6560008201527f7200000000000000000000000000000000000000000000000000000000000000602082015250565b7f4552433732313a2063616c6c6572206973206e6f7420746f6b656e206f776e6560008201527f72206e6f7220617070726f766564000000000000000000000000000000000000602082015250565b61251681611fba565b811461252157600080fd5b50565b61252d81611fcc565b811461253857600080fd5b50565b61254481611fd8565b811461254f57600080fd5b50565b61255b81612024565b811461256657600080fd5b5056fea26469706673582212202677dd3f8d72b517c2489c61b2b70d954da78a67fa0b674083d5e0565bf8b3a464736f6c6343000804003368747470733a2f2f62616679626569626f636c703662657634733476366d746a70336f733432636569767636646a6371656f33796d767877336c6e366b6b7361656e712e697066732e6e667473746f726167652e6c696e6b2f",
  "linkReferences": {},
  "deployedLinkReferences": {}
}