{
  "_format": "hh-sol-artifact-1",
  "contractName": "MusicNFTMarketplace",
  "sourceName": "src/backend/contracts/MusicNFTMarketplace.sol",
  "abi": [
    {
      "inputs": [
        {
          "internalType": "uint256",
          "name": "_royaltyFee",
          "type": "uint256"
        },
        {
          "internalType": "address",
          "name": "_artist",
          "type": "address"
        },
        {
          "internalType": "uint256[]",
          "name": "_prices",
          "type": "uint256[]"
        }
      ],
      "stateMutability": "payable",
      "type": "constructor"
    },
    {
      "anonymous": false,
      "inputs": [
        {
          "indexed": true,
          "internalType": "address",
          "name": "owner",
          "type": "address"
        },
        {
          "indexed": true,
          "internalType": "address",
          "name": "approved",
          "type": "address"
        },
        {
          "indexed": true,
          "internalType": "uint256",
          "name": "tokenId",
          "type": "uint256"
        }
      ],
      "name": "Approval",
      "type": "event"
    },
    {
      "anonymous": false,
      "inputs": [
        {
          "indexed": true,
          "internalType": "address",
          "name": "owner",
          "type": "address"
        },
        {
          "indexed": true,
          "internalType": "address",
          "name": "operator",
          "type": "address"
        },
        {
          "indexed": false,
          "internalType": "bool",
          "name": "approved",
          "type": "bool"
        }
      ],
      "name": "ApprovalForAll",
      "type": "event"
    },
    {
      "anonymous": false,
      "inputs": [
        {
          "indexed": true,
          "internalType": "uint256",
          "name": "tokenId",
          "type": "uint256"
        },
        {
          "indexed": true,
          "internalType": "address",
          "name": "seller",
          "type": "address"
        },
        {
          "indexed": false,
          "internalType": "address",
          "name": "buyer",
          "type": "address"
        },
        {
          "indexed": false,
          "internalType": "uint256",
          "name": "price",
          "type": "uint256"
        }
      ],
      "name": "MarketItemBought",
      "type": "event"
    },
    {
      "anonymous": false,
      "inputs": [
        {
          "indexed": true,
          "internalType": "uint256",
          "name": "tokenId",
          "type": "uint256"
        },
        {
          "indexed": true,
          "internalType": "address",
          "name": "seller",
          "type": "address"
        },
        {
          "indexed": false,
          "internalType": "uint256",
          "name": "price",
          "type": "uint256"
        }
      ],
      "name": "MarketItemRelisted",
      "type": "event"
    },
    {
      "anonymous": false,
      "inputs": [
        {
          "indexed": true,
          "internalType": "address",
          "name": "previousOwner",
          "type": "address"
        },
        {
          "indexed": true,
          "internalType": "address",
          "name": "newOwner",
          "type": "address"
        }
      ],
      "name": "OwnershipTransferred",
      "type": "event"
    },
    {
      "anonymous": false,
      "inputs": [
        {
          "indexed": true,
          "internalType": "address",
          "name": "from",
          "type": "address"
        },
        {
          "indexed": true,
          "internalType": "address",
          "name": "to",
          "type": "address"
        },
        {
          "indexed": true,
          "internalType": "uint256",
          "name": "tokenId",
          "type": "uint256"
        }
      ],
      "name": "Transfer",
      "type": "event"
    },
    {
      "inputs": [
        {
          "internalType": "address",
          "name": "to",
          "type": "address"
        },
        {
          "internalType": "uint256",
          "name": "tokenId",
          "type": "uint256"
        }
      ],
      "name": "approve",
      "outputs": [],
      "stateMutability": "nonpayable",
      "type": "function"
    },
    {
      "inputs": [],
      "name": "artist",
      "outputs": [
        {
          "internalType": "address",
          "name": "",
          "type": "address"
        }
      ],
      "stateMutability": "view",
      "type": "function"
    },
    {
      "inputs": [
        {
          "internalType": "address",
          "name": "owner",
          "type": "address"
        }
      ],
      "name": "balanceOf",
      "outputs": [
        {
          "internalType": "uint256",
          "name": "",
          "type": "uint256"
        }
      ],
      "stateMutability": "view",
      "type": "function"
    },
    {
      "inputs": [],
      "name": "baseExtension",
      "outputs": [
        {
          "internalType": "string",
          "name": "",
          "type": "string"
        }
      ],
      "stateMutability": "view",
      "type": "function"
    },
    {
      "inputs": [],
      "name": "baseURI",
      "outputs": [
        {
          "internalType": "string",
          "name": "",
          "type": "string"
        }
      ],
      "stateMutability": "view",
      "type": "function"
    },
    {
      "inputs": [
        {
          "internalType": "uint256",
          "name": "_tokenId",
          "type": "uint256"
        }
      ],
      "name": "buyToken",
      "outputs": [],
      "stateMutability": "payable",
      "type": "function"
    },
    {
      "inputs": [],
      "name": "getAllUnsoldTokens",
      "outputs": [
        {
          "components": [
            {
              "internalType": "uint256",
              "name": "tokenId",
              "type": "uint256"
            },
            {
              "internalType": "address payable",
              "name": "seller",
              "type": "address"
            },
            {
              "internalType": "uint256",
              "name": "price",
              "type": "uint256"
            }
          ],
          "internalType": "struct MusicNFTMarketplace.MarketItem[]",
          "name": "",
          "type": "tuple[]"
        }
      ],
      "stateMutability": "view",
      "type": "function"
    },
    {
      "inputs": [
        {
          "internalType": "uint256",
          "name": "tokenId",
          "type": "uint256"
        }
      ],
      "name": "getApproved",
      "outputs": [
        {
          "internalType": "address",
          "name": "",
          "type": "address"
        }
      ],
      "stateMutability": "view",
      "type": "function"
    },
    {
      "inputs": [],
      "name": "getMyTokens",
      "outputs": [
        {
          "components": [
            {
              "internalType": "uint256",
              "name": "tokenId",
              "type": "uint256"
            },
            {
              "internalType": "address payable",
              "name": "seller",
              "type": "address"
            },
            {
              "internalType": "uint256",
              "name": "price",
              "type": "uint256"
            }
          ],
          "internalType": "struct MusicNFTMarketplace.MarketItem[]",
          "name": "",
          "type": "tuple[]"
        }
      ],
      "stateMutability": "view",
      "type": "function"
    },
    {
      "inputs": [
        {
          "internalType": "address",
          "name": "owner",
          "type": "address"
        },
        {
          "internalType": "address",
          "name": "operator",
          "type": "address"
        }
      ],
      "name": "isApprovedForAll",
      "outputs": [
        {
          "internalType": "bool",
          "name": "",
          "type": "bool"
        }
      ],
      "stateMutability": "view",
      "type": "function"
    },
    {
      "inputs": [
        {
          "internalType": "uint256",
          "name": "",
          "type": "uint256"
        }
      ],
      "name": "marketItems",
      "outputs": [
        {
          "internalType": "uint256",
          "name": "tokenId",
          "type": "uint256"
        },
        {
          "internalType": "address payable",
          "name": "seller",
          "type": "address"
        },
        {
          "internalType": "uint256",
          "name": "price",
          "type": "uint256"
        }
      ],
      "stateMutability": "view",
      "type": "function"
    },
    {
      "inputs": [],
      "name": "name",
      "outputs": [
        {
          "internalType": "string",
          "name": "",
          "type": "string"
        }
      ],
      "stateMutability": "view",
      "type": "function"
    },
    {
      "inputs": [],
      "name": "owner",
      "outputs": [
        {
          "internalType": "address",
          "name": "",
          "type": "address"
        }
      ],
      "stateMutability": "view",
      "type": "function"
    },
    {
      "inputs": [
        {
          "internalType": "uint256",
          "name": "tokenId",
          "type": "uint256"
        }
      ],
      "name": "ownerOf",
      "outputs": [
        {
          "internalType": "address",
          "name": "",
          "type": "address"
        }
      ],
      "stateMutability": "view",
      "type": "function"
    },
    {
      "inputs": [],
      "name": "renounceOwnership",
      "outputs": [],
      "stateMutability": "nonpayable",
      "type": "function"
    },
    {
      "inputs": [
        {
          "internalType": "uint256",
          "name": "_tokenId",
          "type": "uint256"
        },
        {
          "internalType": "uint256",
          "name": "_price",
          "type": "uint256"
        }
      ],
      "name": "resellToken",
      "outputs": [],
      "stateMutability": "payable",
      "type": "function"
    },
    {
      "inputs": [],
      "name": "royaltyFee",
      "outputs": [
        {
          "internalType": "uint256",
          "name": "",
          "type": "uint256"
        }
      ],
      "stateMutability": "view",
      "type": "function"
    },
    {
      "inputs": [
        {
          "internalType": "address",
          "name": "from",
          "type": "address"
        },
        {
          "internalType": "address",
          "name": "to",
          "type": "address"
        },
        {
          "internalType": "uint256",
          "name": "tokenId",
          "type": "uint256"
        }
      ],
      "name": "safeTransferFrom",
      "outputs": [],
      "stateMutability": "nonpayable",
      "type": "function"
    },
    {
      "inputs": [
        {
          "internalType": "address",
          "name": "from",
          "type": "address"
        },
        {
          "internalType": "address",
          "name": "to",
          "type": "address"
        },
        {
          "internalType": "uint256",
          "name": "tokenId",
          "type": "uint256"
        },
        {
          "internalType": "bytes",
          "name": "data",
          "type": "bytes"
        }
      ],
      "name": "safeTransferFrom",
      "outputs": [],
      "stateMutability": "nonpayable",
      "type": "function"
    },
    {
      "inputs": [
        {
          "internalType": "address",
          "name": "operator",
          "type": "address"
        },
        {
          "internalType": "bool",
          "name": "approved",
          "type": "bool"
        }
      ],
      "name": "setApprovalForAll",
      "outputs": [],
      "stateMutability": "nonpayable",
      "type": "function"
    },
    {
      "inputs": [
        {
          "internalType": "bytes4",
          "name": "interfaceId",
          "type": "bytes4"
        }
      ],
      "name": "supportsInterface",
      "outputs": [
        {
          "internalType": "bool",
          "name": "",
          "type": "bool"
        }
      ],
      "stateMutability": "view",
      "type": "function"
    },
    {
      "inputs": [],
      "name": "symbol",
      "outputs": [
        {
          "internalType": "string",
          "name": "",
          "type": "string"
        }
      ],
      "stateMutability": "view",
      "type": "function"
    },
    {
      "inputs": [
        {
          "internalType": "uint256",
          "name": "tokenId",
          "type": "uint256"
        }
      ],
      "name": "tokenURI",
      "outputs": [
        {
          "internalType": "string",
          "name": "",
          "type": "string"
        }
      ],
      "stateMutability": "view",
      "type": "function"
    },
    {
      "inputs": [
        {
          "internalType": "address",
          "name": "from",
          "type": "address"
        },
        {
          "internalType": "address",
          "name": "to",
          "type": "address"
        },
        {
          "internalType": "uint256",
          "name": "tokenId",
          "type": "uint256"
        }
      ],
      "name": "transferFrom",
      "outputs": [],
      "stateMutability": "nonpayable",
      "type": "function"
    },
    {
      "inputs": [
        {
          "internalType": "address",
          "name": "newOwner",
          "type": "address"
        }
      ],
      "name": "transferOwnership",
      "outputs": [],
      "stateMutability": "nonpayable",
      "type": "function"
    },
    {
      "inputs": [
        {
          "internalType": "uint256",
          "name": "_royaltyFee",
          "type": "uint256"
        }
      ],
      "name": "updateRoyaltyFee",
      "outputs": [],
      "stateMutability": "nonpayable",
      "type": "function"
    }
  ],
  "bytecode": "0x6080604052604051806080016040528060598152602001620044d760599139600790805190602001906200003592919062000712565b506040518060400160405280600581526020017f2e6a736f6e000000000000000000000000000000000000000000000000000000815250600890805190602001906200008392919062000712565b5060405162004530380380620045308339818101604052810190620000a9919062000892565b6040518060400160405280600881526020017f6e7063546f6b656e0000000000000000000000000000000000000000000000008152506040518060400160405280600381526020017f4e5043000000000000000000000000000000000000000000000000000000000081525081600090805190602001906200012d92919062000712565b5080600190805190602001906200014692919062000712565b505050620001696200015d620003d460201b60201c565b620003dc60201b60201c565b3483825162000179919062000aeb565b1115620001bd576040517f08c379a0000000000000000000000000000000000000000000000000000000008152600401620001b4906200099d565b60405180910390fd5b82600a8190555081600960006101000a81548173ffffffffffffffffffffffffffffffffffffffff021916908373ffffffffffffffffffffffffffffffffffffffff16021790555060005b81518160ff161015620003ca576000828260ff168151811062000254577f4e487b7100000000000000000000000000000000000000000000000000000000600052603260045260246000fd5b6020026020010151116200029f576040517f08c379a0000000000000000000000000000000000000000000000000000000008152600401620002969062000a03565b60405180910390fd5b620002b4308260ff16620004a260201b60201c565b600b60405180606001604052808360ff1681526020013373ffffffffffffffffffffffffffffffffffffffff168152602001848460ff168151811062000323577f4e487b7100000000000000000000000000000000000000000000000000000000600052603260045260246000fd5b602002602001015181525090806001815401808255809150506001900390600052602060002090600302016000909190919091506000820151816000015560208201518160010160006101000a81548173ffffffffffffffffffffffffffffffffffffffff021916908373ffffffffffffffffffffffffffffffffffffffff1602179055506040820151816002015550508080620003c19062000c03565b91505062000208565b5050505062000df4565b600033905090565b6000600660009054906101000a900473ffffffffffffffffffffffffffffffffffffffff16905081600660006101000a81548173ffffffffffffffffffffffffffffffffffffffff021916908373ffffffffffffffffffffffffffffffffffffffff1602179055508173ffffffffffffffffffffffffffffffffffffffff168173ffffffffffffffffffffffffffffffffffffffff167f8be0079c531659141344cd1fd0a4f28419497f9722a3daafe3b4186f6b6457e060405160405180910390a35050565b600073ffffffffffffffffffffffffffffffffffffffff168273ffffffffffffffffffffffffffffffffffffffff16141562000515576040517f08c379a00000000000000000000000000000000000000000000000000000000081526004016200050c90620009e1565b60405180910390fd5b62000526816200069c60201b60201c565b1562000569576040517f08c379a00000000000000000000000000000000000000000000000000000000081526004016200056090620009bf565b60405180910390fd5b6200057d600083836200070860201b60201c565b6001600360008473ffffffffffffffffffffffffffffffffffffffff1673ffffffffffffffffffffffffffffffffffffffff1681526020019081526020016000206000828254620005cf919062000a8e565b92505081905550816002600083815260200190815260200160002060006101000a81548173ffffffffffffffffffffffffffffffffffffffff021916908373ffffffffffffffffffffffffffffffffffffffff160217905550808273ffffffffffffffffffffffffffffffffffffffff16600073ffffffffffffffffffffffffffffffffffffffff167fddf252ad1be2c89b69c2b068fc378daa952ba7f163c4a11628f55a4df523b3ef60405160405180910390a462000698600083836200070d60201b60201c565b5050565b60008073ffffffffffffffffffffffffffffffffffffffff166002600084815260200190815260200160002060009054906101000a900473ffffffffffffffffffffffffffffffffffffffff1673ffffffffffffffffffffffffffffffffffffffff1614159050919050565b505050565b505050565b828054620007209062000b97565b90600052602060002090601f01602090048101928262000744576000855562000790565b82601f106200075f57805160ff191683800117855562000790565b8280016001018555821562000790579182015b828111156200078f57825182559160200191906001019062000772565b5b5090506200079f9190620007a3565b5090565b5b80821115620007be576000816000905550600101620007a4565b5090565b6000620007d9620007d38462000a4e565b62000a25565b90508083825260208201905082856020860282011115620007f957600080fd5b60005b858110156200082d57816200081288826200087b565b845260208401935060208301925050600181019050620007fc565b5050509392505050565b600081519050620008488162000dc0565b92915050565b600082601f8301126200086057600080fd5b815162000872848260208601620007c2565b91505092915050565b6000815190506200088c8162000dda565b92915050565b600080600060608486031215620008a857600080fd5b6000620008b8868287016200087b565b9350506020620008cb8682870162000837565b925050604084015167ffffffffffffffff811115620008e957600080fd5b620008f7868287016200084e565b9150509250925092565b60006200091060478362000a7d565b91506200091d8262000cd0565b606082019050919050565b600062000937601c8362000a7d565b9150620009448262000d45565b602082019050919050565b60006200095e60208362000a7d565b91506200096b8262000d6e565b602082019050919050565b60006200098560208362000a7d565b9150620009928262000d97565b602082019050919050565b60006020820190508181036000830152620009b88162000901565b9050919050565b60006020820190508181036000830152620009da8162000928565b9050919050565b60006020820190508181036000830152620009fc816200094f565b9050919050565b6000602082019050818103600083015262000a1e8162000976565b9050919050565b600062000a3162000a44565b905062000a3f828262000bcd565b919050565b6000604051905090565b600067ffffffffffffffff82111562000a6c5762000a6b62000c90565b5b602082029050602081019050919050565b600082825260208201905092915050565b600062000a9b8262000b80565b915062000aa88362000b80565b9250827fffffffffffffffffffffffffffffffffffffffffffffffffffffffffffffffff0382111562000ae05762000adf62000c32565b5b828201905092915050565b600062000af88262000b80565b915062000b058362000b80565b9250817fffffffffffffffffffffffffffffffffffffffffffffffffffffffffffffffff048311821515161562000b415762000b4062000c32565b5b828202905092915050565b600062000b598262000b60565b9050919050565b600073ffffffffffffffffffffffffffffffffffffffff82169050919050565b6000819050919050565b600060ff82169050919050565b6000600282049050600182168062000bb057607f821691505b6020821081141562000bc75762000bc662000c61565b5b50919050565b62000bd88262000cbf565b810181811067ffffffffffffffff8211171562000bfa5762000bf962000c90565b5b80604052505050565b600062000c108262000b8a565b915060ff82141562000c275762000c2662000c32565b5b600182019050919050565b7f4e487b7100000000000000000000000000000000000000000000000000000000600052601160045260246000fd5b7f4e487b7100000000000000000000000000000000000000000000000000000000600052602260045260246000fd5b7f4e487b7100000000000000000000000000000000000000000000000000000000600052604160045260246000fd5b6000601f19601f8301169050919050565b7f6465706c6f796572206d7573742070617920726f79616c74792066656520666f60008201527f72206561636820746f6b656e206c6973746564206f6e20746865206d61726b6560208201527f7420706c61636500000000000000000000000000000000000000000000000000604082015250565b7f4552433732313a20746f6b656e20616c7265616479206d696e74656400000000600082015250565b7f4552433732313a206d696e7420746f20746865207a65726f2061646472657373600082015250565b7f507269636573206d7573742062652067726561746572207468616e207a65726f600082015250565b62000dcb8162000b4c565b811462000dd757600080fd5b50565b62000de58162000b80565b811462000df157600080fd5b50565b6136d38062000e046000396000f3fe6080604052600436106101815760003560e01c806370a08231116100d1578063b88d4fde1161008a578063c87b56dd11610064578063c87b56dd14610565578063e219fc75146105a2578063e985e9c5146105be578063f2fde38b146105fb57610181565b8063b88d4fde146104e6578063b8997a971461050f578063c66828621461053a57610181565b806370a08231146103e8578063715018a614610425578063767dd0761461043c5780638da5cb5b1461046757806395d89b4114610492578063a22cb465146104bd57610181565b806342842e0e1161013e57806351f28e141161011857806351f28e14146103165780635b3b136a146103555780636352211e146103805780636c0360eb146103bd57610181565b806342842e0e1461029957806343bc1612146102c25780634e83be47146102ed57610181565b806301ffc9a71461018657806306fdde03146101c3578063081812fc146101ee578063095ea7b31461022b57806323b872dd146102545780632d296bf11461027d575b600080fd5b34801561019257600080fd5b506101ad60048036038101906101a89190612733565b610624565b6040516101ba9190612c5f565b60405180910390f35b3480156101cf57600080fd5b506101d8610706565b6040516101e59190612c7a565b60405180910390f35b3480156101fa57600080fd5b5061021560048036038101906102109190612785565b610798565b6040516102229190612bad565b60405180910390f35b34801561023757600080fd5b50610252600480360381019061024d91906126f7565b6107de565b005b34801561026057600080fd5b5061027b600480360381019061027691906125f1565b6108f6565b005b61029760048036038101906102929190612785565b610956565b005b3480156102a557600080fd5b506102c060048036038101906102bb91906125f1565b610bf6565b005b3480156102ce57600080fd5b506102d7610c16565b6040516102e49190612bad565b60405180910390f35b3480156102f957600080fd5b50610314600480360381019061030f9190612785565b610c3c565b005b34801561032257600080fd5b5061033d60048036038101906103389190612785565b610c4e565b60405161034c93929190612e77565b60405180910390f35b34801561036157600080fd5b5061036a610ca8565b6040516103779190612c3d565b60405180910390f35b34801561038c57600080fd5b506103a760048036038101906103a29190612785565b610f15565b6040516103b49190612bad565b60405180910390f35b3480156103c957600080fd5b506103d2610fc7565b6040516103df9190612c7a565b60405180910390f35b3480156103f457600080fd5b5061040f600480360381019061040a919061258c565b611055565b60405161041c9190612e5c565b60405180910390f35b34801561043157600080fd5b5061043a61110d565b005b34801561044857600080fd5b50610451611121565b60405161045e9190612c3d565b60405180910390f35b34801561047357600080fd5b5061047c61138f565b6040516104899190612bad565b60405180910390f35b34801561049e57600080fd5b506104a76113b9565b6040516104b49190612c7a565b60405180910390f35b3480156104c957600080fd5b506104e460048036038101906104df91906126bb565b61144b565b005b3480156104f257600080fd5b5061050d60048036038101906105089190612640565b611461565b005b34801561051b57600080fd5b506105246114c3565b6040516105319190612e5c565b60405180910390f35b34801561054657600080fd5b5061054f6114c9565b60405161055c9190612c7a565b60405180910390f35b34801561057157600080fd5b5061058c60048036038101906105879190612785565b611557565b6040516105999190612c7a565b60405180910390f35b6105bc60048036038101906105b791906127ae565b6115bf565b005b3480156105ca57600080fd5b506105e560048036038101906105e091906125b5565b61177e565b6040516105f29190612c5f565b60405180910390f35b34801561060757600080fd5b50610622600480360381019061061d919061258c565b611812565b005b60007f80ac58cd000000000000000000000000000000000000000000000000000000007bffffffffffffffffffffffffffffffffffffffffffffffffffffffff1916827bffffffffffffffffffffffffffffffffffffffffffffffffffffffff191614806106ef57507f5b5e139f000000000000000000000000000000000000000000000000000000007bffffffffffffffffffffffffffffffffffffffffffffffffffffffff1916827bffffffffffffffffffffffffffffffffffffffffffffffffffffffff1916145b806106ff57506106fe82611896565b5b9050919050565b60606000805461071590613103565b80601f016020809104026020016040519081016040528092919081815260200182805461074190613103565b801561078e5780601f106107635761010080835404028352916020019161078e565b820191906000526020600020905b81548152906001019060200180831161077157829003601f168201915b5050505050905090565b60006107a382611900565b6004600083815260200190815260200160002060009054906101000a900473ffffffffffffffffffffffffffffffffffffffff169050919050565b60006107e982610f15565b90508073ffffffffffffffffffffffffffffffffffffffff168373ffffffffffffffffffffffffffffffffffffffff16141561085a576040517f08c379a000000000000000000000000000000000000000000000000000000000815260040161085190612e1c565b60405180910390fd5b8073ffffffffffffffffffffffffffffffffffffffff1661087961194b565b73ffffffffffffffffffffffffffffffffffffffff1614806108a857506108a7816108a261194b565b61177e565b5b6108e7576040517f08c379a00000000000000000000000000000000000000000000000000000000081526004016108de90612d9c565b60405180910390fd5b6108f18383611953565b505050565b61090761090161194b565b82611a0c565b610946576040517f08c379a000000000000000000000000000000000000000000000000000000000815260040161093d90612e3c565b60405180910390fd5b610951838383611aa1565b505050565b6000600b8281548110610992577f4e487b7100000000000000000000000000000000000000000000000000000000600052603260045260246000fd5b90600052602060002090600302016002015490506000600b83815481106109e2577f4e487b7100000000000000000000000000000000000000000000000000000000600052603260045260246000fd5b906000526020600020906003020160010160009054906101000a900473ffffffffffffffffffffffffffffffffffffffff169050813414610a58576040517f08c379a0000000000000000000000000000000000000000000000000000000008152600401610a4f90612dbc565b60405180910390fd5b6000600b8481548110610a94577f4e487b7100000000000000000000000000000000000000000000000000000000600052603260045260246000fd5b906000526020600020906003020160010160006101000a81548173ffffffffffffffffffffffffffffffffffffffff021916908373ffffffffffffffffffffffffffffffffffffffff160217905550610aee303385611aa1565b600960009054906101000a900473ffffffffffffffffffffffffffffffffffffffff1673ffffffffffffffffffffffffffffffffffffffff166108fc600a549081150290604051600060405180830381858888f19350505050158015610b58573d6000803e3d6000fd5b508073ffffffffffffffffffffffffffffffffffffffff166108fc349081150290604051600060405180830381858888f19350505050158015610b9f573d6000803e3d6000fd5b508073ffffffffffffffffffffffffffffffffffffffff16837fd356b8423ef89ccba8e4f1dbeccc60b41825fd97d432f2e6a6dbd11ae6ecec113385604051610be9929190612c14565b60405180910390a3505050565b610c1183838360405180602001604052806000815250611461565b505050565b600960009054906101000a900473ffffffffffffffffffffffffffffffffffffffff1681565b610c44611d08565b80600a8190555050565b600b8181548110610c5e57600080fd5b90600052602060002090600302016000915090508060000154908060010160009054906101000a900473ffffffffffffffffffffffffffffffffffffffff16908060020154905083565b60606000610cb533611055565b905060008167ffffffffffffffff811115610cf9577f4e487b7100000000000000000000000000000000000000000000000000000000600052604160045260246000fd5b604051908082528060200260200182016040528015610d3257816020015b610d1f612484565b815260200190600190039081610d175790505b509050600080600090505b600b80549050811015610f0b573373ffffffffffffffffffffffffffffffffffffffff16600b8281548110610d9b577f4e487b7100000000000000000000000000000000000000000000000000000000600052603260045260246000fd5b906000526020600020906003020160010160009054906101000a900473ffffffffffffffffffffffffffffffffffffffff1673ffffffffffffffffffffffffffffffffffffffff1614610ef857600b8181548110610e22577f4e487b7100000000000000000000000000000000000000000000000000000000600052603260045260246000fd5b9060005260206000209060030201604051806060016040529081600082015481526020016001820160009054906101000a900473ffffffffffffffffffffffffffffffffffffffff1673ffffffffffffffffffffffffffffffffffffffff1673ffffffffffffffffffffffffffffffffffffffff168152602001600282015481525050838381518110610ede577f4e487b7100000000000000000000000000000000000000000000000000000000600052603260045260246000fd5b60200260200101819052508180610ef490613166565b9250505b8080610f0390613166565b915050610d3d565b5081935050505090565b6000806002600084815260200190815260200160002060009054906101000a900473ffffffffffffffffffffffffffffffffffffffff169050600073ffffffffffffffffffffffffffffffffffffffff168173ffffffffffffffffffffffffffffffffffffffff161415610fbe576040517f08c379a0000000000000000000000000000000000000000000000000000000008152600401610fb590612dfc565b60405180910390fd5b80915050919050565b60078054610fd490613103565b80601f016020809104026020016040519081016040528092919081815260200182805461100090613103565b801561104d5780601f106110225761010080835404028352916020019161104d565b820191906000526020600020905b81548152906001019060200180831161103057829003601f168201915b505050505081565b60008073ffffffffffffffffffffffffffffffffffffffff168273ffffffffffffffffffffffffffffffffffffffff1614156110c6576040517f08c379a00000000000000000000000000000000000000000000000000000000081526004016110bd90612d7c565b60405180910390fd5b600360008373ffffffffffffffffffffffffffffffffffffffff1673ffffffffffffffffffffffffffffffffffffffff168152602001908152602001600020549050919050565b611115611d08565b61111f6000611d86565b565b6060600061112e30611055565b905060008167ffffffffffffffff811115611172577f4e487b7100000000000000000000000000000000000000000000000000000000600052604160045260246000fd5b6040519080825280602002602001820160405280156111ab57816020015b611198612484565b8152602001906001900390816111905790505b509050600080600090505b600b8054905081101561138557600073ffffffffffffffffffffffffffffffffffffffff16600b8281548110611215577f4e487b7100000000000000000000000000000000000000000000000000000000600052603260045260246000fd5b906000526020600020906003020160010160009054906101000a900473ffffffffffffffffffffffffffffffffffffffff1673ffffffffffffffffffffffffffffffffffffffff161461137257600b818154811061129c577f4e487b7100000000000000000000000000000000000000000000000000000000600052603260045260246000fd5b9060005260206000209060030201604051806060016040529081600082015481526020016001820160009054906101000a900473ffffffffffffffffffffffffffffffffffffffff1673ffffffffffffffffffffffffffffffffffffffff1673ffffffffffffffffffffffffffffffffffffffff168152602001600282015481525050838381518110611358577f4e487b7100000000000000000000000000000000000000000000000000000000600052603260045260246000fd5b6020026020010181905250818061136e90613166565b9250505b808061137d90613166565b9150506111b6565b5081935050505090565b6000600660009054906101000a900473ffffffffffffffffffffffffffffffffffffffff16905090565b6060600180546113c890613103565b80601f01602080910402602001604051908101604052809291908181526020018280546113f490613103565b80156114415780601f1061141657610100808354040283529160200191611441565b820191906000526020600020905b81548152906001019060200180831161142457829003601f168201915b5050505050905090565b61145d61145661194b565b8383611e4c565b5050565b61147261146c61194b565b83611a0c565b6114b1576040517f08c379a00000000000000000000000000000000000000000000000000000000081526004016114a890612e3c565b60405180910390fd5b6114bd84848484611fb9565b50505050565b600a5481565b600880546114d690613103565b80601f016020809104026020016040519081016040528092919081815260200182805461150290613103565b801561154f5780601f106115245761010080835404028352916020019161154f565b820191906000526020600020905b81548152906001019060200180831161153257829003601f168201915b505050505081565b606061156282611900565b600061156c612015565b9050600081511161158c57604051806020016040528060008152506115b7565b80611596846120a7565b6040516020016115a7929190612b89565b6040516020818303038152906040525b915050919050565b600a543414611603576040517f08c379a00000000000000000000000000000000000000000000000000000000081526004016115fa90612c9c565b60405180910390fd5b60008111611646576040517f08c379a000000000000000000000000000000000000000000000000000000000815260040161163d90612cbc565b60405180910390fd5b80600b8381548110611681577f4e487b7100000000000000000000000000000000000000000000000000000000600052603260045260246000fd5b90600052602060002090600302016002018190555033600b83815481106116d1577f4e487b7100000000000000000000000000000000000000000000000000000000600052603260045260246000fd5b906000526020600020906003020160010160006101000a81548173ffffffffffffffffffffffffffffffffffffffff021916908373ffffffffffffffffffffffffffffffffffffffff16021790555061172b333084611aa1565b3373ffffffffffffffffffffffffffffffffffffffff16827fb2ba12d2566848b13548a3741edb565b69d3cbce7796959cd67431610207eb13836040516117729190612e5c565b60405180910390a35050565b6000600560008473ffffffffffffffffffffffffffffffffffffffff1673ffffffffffffffffffffffffffffffffffffffff16815260200190815260200160002060008373ffffffffffffffffffffffffffffffffffffffff1673ffffffffffffffffffffffffffffffffffffffff16815260200190815260200160002060009054906101000a900460ff16905092915050565b61181a611d08565b600073ffffffffffffffffffffffffffffffffffffffff168173ffffffffffffffffffffffffffffffffffffffff16141561188a576040517f08c379a000000000000000000000000000000000000000000000000000000000815260040161188190612cfc565b60405180910390fd5b61189381611d86565b50565b60007f01ffc9a7000000000000000000000000000000000000000000000000000000007bffffffffffffffffffffffffffffffffffffffffffffffffffffffff1916827bffffffffffffffffffffffffffffffffffffffffffffffffffffffff1916149050919050565b61190981612254565b611948576040517f08c379a000000000000000000000000000000000000000000000000000000000815260040161193f90612dfc565b60405180910390fd5b50565b600033905090565b816004600083815260200190815260200160002060006101000a81548173ffffffffffffffffffffffffffffffffffffffff021916908373ffffffffffffffffffffffffffffffffffffffff160217905550808273ffffffffffffffffffffffffffffffffffffffff166119c683610f15565b73ffffffffffffffffffffffffffffffffffffffff167f8c5be1e5ebec7d5bd14f71427d1e84f3dd0314c0f7b2291e5b200ac8c7c3b92560405160405180910390a45050565b600080611a1883610f15565b90508073ffffffffffffffffffffffffffffffffffffffff168473ffffffffffffffffffffffffffffffffffffffff161480611a5a5750611a59818561177e565b5b80611a9857508373ffffffffffffffffffffffffffffffffffffffff16611a8084610798565b73ffffffffffffffffffffffffffffffffffffffff16145b91505092915050565b8273ffffffffffffffffffffffffffffffffffffffff16611ac182610f15565b73ffffffffffffffffffffffffffffffffffffffff1614611b17576040517f08c379a0000000000000000000000000000000000000000000000000000000008152600401611b0e90612d1c565b60405180910390fd5b600073ffffffffffffffffffffffffffffffffffffffff168273ffffffffffffffffffffffffffffffffffffffff161415611b87576040517f08c379a0000000000000000000000000000000000000000000000000000000008152600401611b7e90612d3c565b60405180910390fd5b611b928383836122c0565b611b9d600082611953565b6001600360008573ffffffffffffffffffffffffffffffffffffffff1673ffffffffffffffffffffffffffffffffffffffff1681526020019081526020016000206000828254611bed9190613007565b925050819055506001600360008473ffffffffffffffffffffffffffffffffffffffff1673ffffffffffffffffffffffffffffffffffffffff1681526020019081526020016000206000828254611c449190612f80565b92505081905550816002600083815260200190815260200160002060006101000a81548173ffffffffffffffffffffffffffffffffffffffff021916908373ffffffffffffffffffffffffffffffffffffffff160217905550808273ffffffffffffffffffffffffffffffffffffffff168473ffffffffffffffffffffffffffffffffffffffff167fddf252ad1be2c89b69c2b068fc378daa952ba7f163c4a11628f55a4df523b3ef60405160405180910390a4611d038383836122c5565b505050565b611d1061194b565b73ffffffffffffffffffffffffffffffffffffffff16611d2e61138f565b73ffffffffffffffffffffffffffffffffffffffff1614611d84576040517f08c379a0000000000000000000000000000000000000000000000000000000008152600401611d7b90612ddc565b60405180910390fd5b565b6000600660009054906101000a900473ffffffffffffffffffffffffffffffffffffffff16905081600660006101000a81548173ffffffffffffffffffffffffffffffffffffffff021916908373ffffffffffffffffffffffffffffffffffffffff1602179055508173ffffffffffffffffffffffffffffffffffffffff168173ffffffffffffffffffffffffffffffffffffffff167f8be0079c531659141344cd1fd0a4f28419497f9722a3daafe3b4186f6b6457e060405160405180910390a35050565b8173ffffffffffffffffffffffffffffffffffffffff168373ffffffffffffffffffffffffffffffffffffffff161415611ebb576040517f08c379a0000000000000000000000000000000000000000000000000000000008152600401611eb290612d5c565b60405180910390fd5b80600560008573ffffffffffffffffffffffffffffffffffffffff1673ffffffffffffffffffffffffffffffffffffffff16815260200190815260200160002060008473ffffffffffffffffffffffffffffffffffffffff1673ffffffffffffffffffffffffffffffffffffffff16815260200190815260200160002060006101000a81548160ff0219169083151502179055508173ffffffffffffffffffffffffffffffffffffffff168373ffffffffffffffffffffffffffffffffffffffff167f17307eab39ab6107e8899845ad3d59bd9653f200f220920489ca2b5937696c3183604051611fac9190612c5f565b60405180910390a3505050565b611fc4848484611aa1565b611fd0848484846122ca565b61200f576040517f08c379a000000000000000000000000000000000000000000000000000000000815260040161200690612cdc565b60405180910390fd5b50505050565b60606007805461202490613103565b80601f016020809104026020016040519081016040528092919081815260200182805461205090613103565b801561209d5780601f106120725761010080835404028352916020019161209d565b820191906000526020600020905b81548152906001019060200180831161208057829003601f168201915b5050505050905090565b606060008214156120ef576040518060400160405280600181526020017f3000000000000000000000000000000000000000000000000000000000000000815250905061224f565b600082905060005b6000821461212157808061210a90613166565b915050600a8261211a9190612fd6565b91506120f7565b60008167ffffffffffffffff811115612163577f4e487b7100000000000000000000000000000000000000000000000000000000600052604160045260246000fd5b6040519080825280601f01601f1916602001820160405280156121955781602001600182028036833780820191505090505b5090505b60008514612248576001826121ae9190613007565b9150600a856121bd91906131af565b60306121c99190612f80565b60f81b818381518110612205577f4e487b7100000000000000000000000000000000000000000000000000000000600052603260045260246000fd5b60200101907effffffffffffffffffffffffffffffffffffffffffffffffffffffffffffff1916908160001a905350600a856122419190612fd6565b9450612199565b8093505050505b919050565b60008073ffffffffffffffffffffffffffffffffffffffff166002600084815260200190815260200160002060009054906101000a900473ffffffffffffffffffffffffffffffffffffffff1673ffffffffffffffffffffffffffffffffffffffff1614159050919050565b505050565b505050565b60006122eb8473ffffffffffffffffffffffffffffffffffffffff16612461565b15612454578373ffffffffffffffffffffffffffffffffffffffff1663150b7a0261231461194b565b8786866040518563ffffffff1660e01b81526004016123369493929190612bc8565b602060405180830381600087803b15801561235057600080fd5b505af192505050801561238157506040513d601f19601f8201168201806040525081019061237e919061275c565b60015b612404573d80600081146123b1576040519150601f19603f3d011682016040523d82523d6000602084013e6123b6565b606091505b506000815114156123fc576040517f08c379a00000000000000000000000000000000000000000000000000000000081526004016123f390612cdc565b60405180910390fd5b805181602001fd5b63150b7a0260e01b7bffffffffffffffffffffffffffffffffffffffffffffffffffffffff1916817bffffffffffffffffffffffffffffffffffffffffffffffffffffffff191614915050612459565b600190505b949350505050565b6000808273ffffffffffffffffffffffffffffffffffffffff163b119050919050565b604051806060016040528060008152602001600073ffffffffffffffffffffffffffffffffffffffff168152602001600081525090565b60006124ce6124c984612ed3565b612eae565b9050828152602081018484840111156124e657600080fd5b6124f18482856130c1565b509392505050565b60008135905061250881613641565b92915050565b60008135905061251d81613658565b92915050565b6000813590506125328161366f565b92915050565b6000815190506125478161366f565b92915050565b600082601f83011261255e57600080fd5b813561256e8482602086016124bb565b91505092915050565b60008135905061258681613686565b92915050565b60006020828403121561259e57600080fd5b60006125ac848285016124f9565b91505092915050565b600080604083850312156125c857600080fd5b60006125d6858286016124f9565b92505060206125e7858286016124f9565b9150509250929050565b60008060006060848603121561260657600080fd5b6000612614868287016124f9565b9350506020612625868287016124f9565b925050604061263686828701612577565b9150509250925092565b6000806000806080858703121561265657600080fd5b6000612664878288016124f9565b9450506020612675878288016124f9565b935050604061268687828801612577565b925050606085013567ffffffffffffffff8111156126a357600080fd5b6126af8782880161254d565b91505092959194509250565b600080604083850312156126ce57600080fd5b60006126dc858286016124f9565b92505060206126ed8582860161250e565b9150509250929050565b6000806040838503121561270a57600080fd5b6000612718858286016124f9565b925050602061272985828601612577565b9150509250929050565b60006020828403121561274557600080fd5b600061275384828501612523565b91505092915050565b60006020828403121561276e57600080fd5b600061277c84828501612538565b91505092915050565b60006020828403121561279757600080fd5b60006127a584828501612577565b91505092915050565b600080604083850312156127c157600080fd5b60006127cf85828601612577565b92505060206127e085828601612577565b9150509250929050565b60006127f68383612b29565b60608301905092915050565b61280b8161304d565b82525050565b61281a8161304d565b82525050565b6128298161303b565b82525050565b600061283a82612f14565b6128448185612f42565b935061284f83612f04565b8060005b8381101561288057815161286788826127ea565b975061287283612f35565b925050600181019050612853565b5085935050505092915050565b6128968161305f565b82525050565b60006128a782612f1f565b6128b18185612f53565b93506128c18185602086016130d0565b6128ca8161329c565b840191505092915050565b60006128e082612f2a565b6128ea8185612f64565b93506128fa8185602086016130d0565b6129038161329c565b840191505092915050565b600061291982612f2a565b6129238185612f75565b93506129338185602086016130d0565b80840191505092915050565b600061294c601483612f64565b9150612957826132ad565b602082019050919050565b600061296f601f83612f64565b915061297a826132d6565b602082019050919050565b6000612992603283612f64565b915061299d826132ff565b604082019050919050565b60006129b5602683612f64565b91506129c08261334e565b604082019050919050565b60006129d8602583612f64565b91506129e38261339d565b604082019050919050565b60006129fb602483612f64565b9150612a06826133ec565b604082019050919050565b6000612a1e601983612f64565b9150612a298261343b565b602082019050919050565b6000612a41602983612f64565b9150612a4c82613464565b604082019050919050565b6000612a64603e83612f64565b9150612a6f826134b3565b604082019050919050565b6000612a87603e83612f64565b9150612a9282613502565b604082019050919050565b6000612aaa602083612f64565b9150612ab582613551565b602082019050919050565b6000612acd601883612f64565b9150612ad88261357a565b602082019050919050565b6000612af0602183612f64565b9150612afb826135a3565b604082019050919050565b6000612b13602e83612f64565b9150612b1e826135f2565b604082019050919050565b606082016000820151612b3f6000850182612b6b565b506020820151612b526020850182612802565b506040820151612b656040850182612b6b565b50505050565b612b74816130b7565b82525050565b612b83816130b7565b82525050565b6000612b95828561290e565b9150612ba1828461290e565b91508190509392505050565b6000602082019050612bc26000830184612820565b92915050565b6000608082019050612bdd6000830187612820565b612bea6020830186612820565b612bf76040830185612b7a565b8181036060830152612c09818461289c565b905095945050505050565b6000604082019050612c296000830185612820565b612c366020830184612b7a565b9392505050565b60006020820190508181036000830152612c57818461282f565b905092915050565b6000602082019050612c74600083018461288d565b92915050565b60006020820190508181036000830152612c9481846128d5565b905092915050565b60006020820190508181036000830152612cb58161293f565b9050919050565b60006020820190508181036000830152612cd581612962565b9050919050565b60006020820190508181036000830152612cf581612985565b9050919050565b60006020820190508181036000830152612d15816129a8565b9050919050565b60006020820190508181036000830152612d35816129cb565b9050919050565b60006020820190508181036000830152612d55816129ee565b9050919050565b60006020820190508181036000830152612d7581612a11565b9050919050565b60006020820190508181036000830152612d9581612a34565b9050919050565b60006020820190508181036000830152612db581612a57565b9050919050565b60006020820190508181036000830152612dd581612a7a565b9050919050565b60006020820190508181036000830152612df581612a9d565b9050919050565b60006020820190508181036000830152612e1581612ac0565b9050919050565b60006020820190508181036000830152612e3581612ae3565b9050919050565b60006020820190508181036000830152612e5581612b06565b9050919050565b6000602082019050612e716000830184612b7a565b92915050565b6000606082019050612e8c6000830186612b7a565b612e996020830185612811565b612ea66040830184612b7a565b949350505050565b6000612eb8612ec9565b9050612ec48282613135565b919050565b6000604051905090565b600067ffffffffffffffff821115612eee57612eed61326d565b5b612ef78261329c565b9050602081019050919050565b6000819050602082019050919050565b600081519050919050565b600081519050919050565b600081519050919050565b6000602082019050919050565b600082825260208201905092915050565b600082825260208201905092915050565b600082825260208201905092915050565b600081905092915050565b6000612f8b826130b7565b9150612f96836130b7565b9250827fffffffffffffffffffffffffffffffffffffffffffffffffffffffffffffffff03821115612fcb57612fca6131e0565b5b828201905092915050565b6000612fe1826130b7565b9150612fec836130b7565b925082612ffc57612ffb61320f565b5b828204905092915050565b6000613012826130b7565b915061301d836130b7565b9250828210156130305761302f6131e0565b5b828203905092915050565b600061304682613097565b9050919050565b600061305882613097565b9050919050565b60008115159050919050565b60007fffffffff0000000000000000000000000000000000000000000000000000000082169050919050565b600073ffffffffffffffffffffffffffffffffffffffff82169050919050565b6000819050919050565b82818337600083830152505050565b60005b838110156130ee5780820151818401526020810190506130d3565b838111156130fd576000848401525b50505050565b6000600282049050600182168061311b57607f821691505b6020821081141561312f5761312e61323e565b5b50919050565b61313e8261329c565b810181811067ffffffffffffffff8211171561315d5761315c61326d565b5b80604052505050565b6000613171826130b7565b91507fffffffffffffffffffffffffffffffffffffffffffffffffffffffffffffffff8214156131a4576131a36131e0565b5b600182019050919050565b60006131ba826130b7565b91506131c5836130b7565b9250826131d5576131d461320f565b5b828206905092915050565b7f4e487b7100000000000000000000000000000000000000000000000000000000600052601160045260246000fd5b7f4e487b7100000000000000000000000000000000000000000000000000000000600052601260045260246000fd5b7f4e487b7100000000000000000000000000000000000000000000000000000000600052602260045260246000fd5b7f4e487b7100000000000000000000000000000000000000000000000000000000600052604160045260246000fd5b6000601f19601f8301169050919050565b7f4d7573742070617920726f79616c747920666565000000000000000000000000600082015250565b7f5072696365206d7573742062652067726561746572207468616e207a65726f00600082015250565b7f4552433732313a207472616e7366657220746f206e6f6e20455243373231526560008201527f63656976657220696d706c656d656e7465720000000000000000000000000000602082015250565b7f4f776e61626c653a206e6577206f776e657220697320746865207a65726f206160008201527f6464726573730000000000000000000000000000000000000000000000000000602082015250565b7f4552433732313a207472616e736665722066726f6d20696e636f72726563742060008201527f6f776e6572000000000000000000000000000000000000000000000000000000602082015250565b7f4552433732313a207472616e7366657220746f20746865207a65726f2061646460008201527f7265737300000000000000000000000000000000000000000000000000000000602082015250565b7f4552433732313a20617070726f766520746f2063616c6c657200000000000000600082015250565b7f4552433732313a2061646472657373207a65726f206973206e6f74206120766160008201527f6c6964206f776e65720000000000000000000000000000000000000000000000602082015250565b7f4552433732313a20617070726f76652063616c6c6572206973206e6f7420746f60008201527f6b656e206f776e6572206e6f7220617070726f76656420666f7220616c6c0000602082015250565b7f506c656173652073656e64207468652061736b696e6720707269636520696e2060008201527f6f7264657220746f20636f6d706c657465207468652070757263686173650000602082015250565b7f4f776e61626c653a2063616c6c6572206973206e6f7420746865206f776e6572600082015250565b7f4552433732313a20696e76616c696420746f6b656e2049440000000000000000600082015250565b7f4552433732313a20617070726f76616c20746f2063757272656e74206f776e6560008201527f7200000000000000000000000000000000000000000000000000000000000000602082015250565b7f4552433732313a2063616c6c6572206973206e6f7420746f6b656e206f776e6560008201527f72206e6f7220617070726f766564000000000000000000000000000000000000602082015250565b61364a8161303b565b811461365557600080fd5b50565b6136618161305f565b811461366c57600080fd5b50565b6136788161306b565b811461368357600080fd5b50565b61368f816130b7565b811461369a57600080fd5b5056fea2646970667358221220458258e63ba93a7f894efb5ad15374e5b0fa3bda1124579fc430b6b5caafdf1a64736f6c6343000804003368747470733a2f2f62616679626569626f636c703662657634733476366d746a70336f733432636569767636646a6371656f33796d767877336c6e366b6b7361656e712e697066732e6e667473746f726167652e6c696e6b2f",
  "linkReferences": {},
  "deployedLinkReferences": {}
}