{
  "contractName": "ShareMsg",
  "abi": [
    {
      "constant": false,
      "inputs": [
        {
          "name": "receiver",
          "type": "address"
        },
        {
          "name": "messageToSend",
          "type": "string"
        }
      ],
      "name": "sendMessage",
      "outputs": [],
      "payable": false,
      "stateMutability": "nonpayable",
      "type": "function",
      "signature": "0xde6f24bb"
    },
    {
      "constant": true,
      "inputs": [],
      "name": "getReceivedMessages",
      "outputs": [
        {
          "components": [
            {
              "name": "from",
              "type": "address"
            },
            {
              "name": "to",
              "type": "address"
            },
            {
              "name": "message",
              "type": "string"
            }
          ],
          "name": "",
          "type": "tuple[]"
        }
      ],
      "payable": false,
      "stateMutability": "view",
      "type": "function",
      "signature": "0x4e9a5c89"
    },
    {
      "constant": true,
      "inputs": [],
      "name": "getSendedMessages",
      "outputs": [
        {
          "components": [
            {
              "name": "from",
              "type": "address"
            },
            {
              "name": "to",
              "type": "address"
            },
            {
              "name": "message",
              "type": "string"
            }
          ],
          "name": "",
          "type": "tuple[]"
        }
      ],
      "payable": false,
      "stateMutability": "view",
      "type": "function",
      "signature": "0x3f1595ea"
    }
  ],
  "bytecode": "0x608060405234801561001057600080fd5b50610999806100206000396000f3fe6080604052600436106100565763ffffffff7c01000000000000000000000000000000000000000000000000000000006000350416633f1595ea811461005b5780634e9a5c8914610086578063de6f24bb1461009b575b600080fd5b34801561006757600080fd5b506100706100bd565b60405161007d9190610892565b60405180910390f35b34801561009257600080fd5b506100706101d9565b3480156100a757600080fd5b506100bb6100b636600461074d565b6102ed565b005b33600090815260208181526040808320805482518185028101850190935280835260609492939192909184015b828210156101cf57600084815260209081902060408051606081018252600386029092018054600160a060020a039081168452600180830154909116848601526002808301805485516101009482161594909402600019011691909104601f81018790048702830187018552808352949592949386019391929091908301828280156101b75780601f1061018c576101008083540402835291602001916101b7565b820191906000526020600020905b81548152906001019060200180831161019a57829003601f168201915b505050505081525050815260200190600101906100ea565b5050505090505b90565b336000908152600160209081526040808320805482518185028101850190935280835260609492939192909184015b828210156101cf57600084815260209081902060408051606081018252600386029092018054600160a060020a039081168452600180830154909116848601526002808301805485516101009482161594909402600019011691909104601f81018790048702830187018552808352949592949386019391929091908301828280156102d55780601f106102aa576101008083540402835291602001916102d5565b820191906000526020600020905b8154815290600101906020018083116102b857829003601f168201915b50505050508152505081526020019060010190610208565b33600090815260208190526040902061030461046c565b5060408051606081018252338152600160a060020a0385811660208084019182529383018681528554600181810180895560008981528890208751600390940201805493871673ffffffffffffffffffffffffffffffffffffffff199485161781559451918501805492909616919092161790935551805193949293859361039392600285019291019061048b565b505033600090815260208190526040902084546103b593509091508490610509565b50600160a060020a0380851660009081526001602081815260408084208054808501808355828752958490208851600390920201805491881673ffffffffffffffffffffffffffffffffffffffff19928316178155888501519581018054969098169590911694909417909555850151805186939261043b92600285019291019061048b565b505050600160a060020a0386166000908152600160205260409020825461046492508390610509565b505050505050565b6040805160608181018352600080835260208301529181019190915290565b828054600181600116156101000203166002900490600052602060002090601f016020900481019282601f106104cc57805160ff19168380011785556104f9565b828001600101855582156104f9579182015b828111156104f95782518255916020019190600101906104de565b506105059291506105c2565b5090565b8280548282559060005260206000209060030281019282156105b65760005260206000209160030282015b828111156105b6578254825473ffffffffffffffffffffffffffffffffffffffff19908116600160a060020a039283161784556001808601548186018054909316931692909217905560028085018054869386936105a493818601939092811615610100026000190116046105dc565b50505091600301919060030190610534565b50610505929150610651565b6101d691905b8082111561050557600081556001016105c8565b828054600181600116156101000203166002900490600052602060002090601f016020900481019282601f1061061557805485556104f9565b828001600101855582156104f957600052602060002091601f016020900482015b828111156104f9578254825591600101919060010190610636565b6101d691905b8082111561050557805473ffffffffffffffffffffffffffffffffffffffff19908116825560018201805490911690556000610696600283018261069f565b50600301610657565b50805460018160011615610100020316600290046000825580601f106106c557506106e3565b601f0160209004906000526020600020908101906106e391906105c2565b50565b60006106f282356108fc565b9392505050565b6000601f8201831361070a57600080fd5b813561071d610718826108ca565b6108a3565b9150808252602083016020830185838301111561073957600080fd5b610744838284610919565b50505092915050565b6000806040838503121561076057600080fd5b600061076c85856106e6565b925050602083013567ffffffffffffffff81111561078957600080fd5b610795858286016106f9565b9150509250929050565b6107a8816108fc565b82525050565b60006107b9826108f8565b808452602084019350836020820285016107d2856108f2565b60005b848110156108095783830388526107ed83835161084a565b92506107f8826108f2565b6020989098019791506001016107d5565b50909695505050505050565b6000610820826108f8565b808452610834816020860160208601610925565b61083d81610955565b9093016020019392505050565b8051600090606084019061085e858261079f565b506020830151610871602086018261079f565b50604083015184820360408601526108898282610815565b95945050505050565b602080825281016106f281846107ae565b60405181810167ffffffffffffffff811182821017156108c257600080fd5b604052919050565b600067ffffffffffffffff8211156108e157600080fd5b506020601f91909101601f19160190565b60200190565b5190565b60006109078261090d565b92915050565b600160a060020a031690565b82818337506000910152565b60005b83811015610940578181015183820152602001610928565b8381111561094f576000848401525b50505050565b601f01601f19169056fea265627a7a72305820f5a37ad4e1a4229ee3c8691d19ec935ac3fd1b716aebf5f676090baabda742c06c6578706572696d656e74616cf50037",
  "source": "// SPDX-License-Identifier: MIT\r\npragma solidity >=0.4.22 <0.9.0;\r\npragma experimental ABIEncoderV2;\r\ncontract ShareMsg{\r\n    struct message{\r\n        address from;\r\n        address to;\r\n        string message;\r\n    }\r\n    mapping(address=>message[]) private sendedMessages;\r\n    mapping(address=>message[]) private receiverMessages;\r\n    function sendMessage(address receiver,string memory messageToSend) public  {\r\n        message[] storage prevMsg=sendedMessages[msg.sender];\r\n        message memory newMsg=message(msg.sender,receiver,messageToSend);\r\n    prevMsg.push(newMsg);\r\n    sendedMessages[msg.sender]=prevMsg;\r\n    message[] storage receiverMsg=receiverMessages[receiver];\r\n    receiverMsg.push(newMsg);\r\n    receiverMessages[receiver]=receiverMsg;\r\n    }\r\n    function getReceivedMessages() public view returns(message[] memory){\r\n        return receiverMessages[msg.sender];\r\n    }\r\n    function getSendedMessages() public view returns(message[] memory){\r\n        return sendedMessages[msg.sender];\r\n    }\r\n}\r\n",
  "sourcePath": "C:/Users/Gokuleshwaran/Documents/Gokul/Blockchain/Blockchain/Message Exchange System/Contract/contracts/ShareMsg.sol",
  "compiler": {
    "name": "solc",
    "version": "0.5.0+commit.1d4f565a.Emscripten.clang"
  },
  "schemaVersion": "3.0.1",
  "updatedAt": "2022-11-13T05:31:14.913Z",
  "devdoc": {
    "methods": {}
  },
  "userdoc": {
    "methods": {}
  }
}