{
  "address": "0x083916D30DbaCFD5b7Aa69364E49d1fbB1220730",
  "_format": "hh-sol-artifact-1",
  "contractName": "ShareMsg",
  "sourceName": "contracts/shareMsg.sol",
  "abi": [
    {
      "constant": false,
      "inputs": [
        {
          "name": "receiver",
          "type": "address"
        },
        {
          "name": "messageToSend",
          "type": "string"
        }
      ],
      "name": "sendMessage",
      "outputs": [],
      "payable": false,
      "stateMutability": "nonpayable",
      "type": "function",
      "signature": "0xde6f24bb"
    },
    {
      "constant": true,
      "inputs": [],
      "name": "getReceivedMessages",
      "outputs": [
        {
          "components": [
            {
              "name": "from",
              "type": "address"
            },
            {
              "name": "to",
              "type": "address"
            },
            {
              "name": "message",
              "type": "string"
            }
          ],
          "name": "",
          "type": "tuple[]"
        }
      ],
      "payable": false,
      "stateMutability": "view",
      "type": "function",
      "signature": "0x4e9a5c89"
    },
    {
      "constant": true,
      "inputs": [],
      "name": "getSendedMessages",
      "outputs": [
        {
          "components": [
            {
              "name": "from",
              "type": "address"
            },
            {
              "name": "to",
              "type": "address"
            },
            {
              "name": "message",
              "type": "string"
            }
          ],
          "name": "",
          "type": "tuple[]"
        }
      ],
      "payable": false,
      "stateMutability": "view",
      "type": "function",
      "signature": "0x3f1595ea"
    }
  ],
  "bytecode": "0x608060405234801561001057600080fd5b50611166806100206000396000f3fe608060405234801561001057600080fd5b50600436106100415760003560e01c80633f1595ea146100465780634e9a5c8914610064578063de6f24bb14610082575b600080fd5b61004e61009e565b60405161005b9190610b57565b60405180910390f35b61006c610277565b6040516100799190610b57565b60405180910390f35b61009c60048036038101906100979190610cee565b610451565b005b60606000803373ffffffffffffffffffffffffffffffffffffffff1673ffffffffffffffffffffffffffffffffffffffff168152602001908152602001600020805480602002602001604051908101604052809291908181526020016000905b8282101561026e57838290600052602060002090600302016040518060600160405290816000820160009054906101000a900473ffffffffffffffffffffffffffffffffffffffff1673ffffffffffffffffffffffffffffffffffffffff1673ffffffffffffffffffffffffffffffffffffffff1681526020016001820160009054906101000a900473ffffffffffffffffffffffffffffffffffffffff1673ffffffffffffffffffffffffffffffffffffffff1673ffffffffffffffffffffffffffffffffffffffff1681526020016002820180546101dd90610d79565b80601f016020809104026020016040519081016040528092919081815260200182805461020990610d79565b80156102565780601f1061022b57610100808354040283529160200191610256565b820191906000526020600020905b81548152906001019060200180831161023957829003601f168201915b505050505081525050815260200190600101906100fe565b50505050905090565b6060600160003373ffffffffffffffffffffffffffffffffffffffff1673ffffffffffffffffffffffffffffffffffffffff168152602001908152602001600020805480602002602001604051908101604052809291908181526020016000905b8282101561044857838290600052602060002090600302016040518060600160405290816000820160009054906101000a900473ffffffffffffffffffffffffffffffffffffffff1673ffffffffffffffffffffffffffffffffffffffff1673ffffffffffffffffffffffffffffffffffffffff1681526020016001820160009054906101000a900473ffffffffffffffffffffffffffffffffffffffff1673ffffffffffffffffffffffffffffffffffffffff1673ffffffffffffffffffffffffffffffffffffffff1681526020016002820180546103b790610d79565b80601f01602080910402602001604051908101604052809291908181526020018280546103e390610d79565b80156104305780601f1061040557610100808354040283529160200191610430565b820191906000526020600020905b81548152906001019060200180831161041357829003601f168201915b505050505081525050815260200190600101906102d8565b50505050905090565b60008060003373ffffffffffffffffffffffffffffffffffffffff1673ffffffffffffffffffffffffffffffffffffffff1681526020019081526020016000209050600060405180606001604052803373ffffffffffffffffffffffffffffffffffffffff1681526020018573ffffffffffffffffffffffffffffffffffffffff1681526020018481525090508181908060018154018082558091505060019003906000526020600020906003020160009091909190915060008201518160000160006101000a81548173ffffffffffffffffffffffffffffffffffffffff021916908373ffffffffffffffffffffffffffffffffffffffff16021790555060208201518160010160006101000a81548173ffffffffffffffffffffffffffffffffffffffff021916908373ffffffffffffffffffffffffffffffffffffffff16021790555060408201518160020190816105ac9190610f60565b505050816000803373ffffffffffffffffffffffffffffffffffffffff1673ffffffffffffffffffffffffffffffffffffffff1681526020019081526020016000209080546105fc929190610767565b506000600160008673ffffffffffffffffffffffffffffffffffffffff1673ffffffffffffffffffffffffffffffffffffffff16815260200190815260200160002090508082908060018154018082558091505060019003906000526020600020906003020160009091909190915060008201518160000160006101000a81548173ffffffffffffffffffffffffffffffffffffffff021916908373ffffffffffffffffffffffffffffffffffffffff16021790555060208201518160010160006101000a81548173ffffffffffffffffffffffffffffffffffffffff021916908373ffffffffffffffffffffffffffffffffffffffff160217905550604082015181600201908161070e9190610f60565b50505080600160008773ffffffffffffffffffffffffffffffffffffffff1673ffffffffffffffffffffffffffffffffffffffff16815260200190815260200160002090805461075f929190610767565b505050505050565b8280548282559060005260206000209060030281019282156108915760005260206000209160030282015b828111156108905782826000820160009054906101000a900473ffffffffffffffffffffffffffffffffffffffff168160000160006101000a81548173ffffffffffffffffffffffffffffffffffffffff021916908373ffffffffffffffffffffffffffffffffffffffff1602179055506001820160009054906101000a900473ffffffffffffffffffffffffffffffffffffffff168160010160006101000a81548173ffffffffffffffffffffffffffffffffffffffff021916908373ffffffffffffffffffffffffffffffffffffffff1602179055506002820181600201908161087e9190611048565b50505091600301919060030190610792565b5b50905061089e91906108a2565b5090565b5b8082111561091357600080820160006101000a81549073ffffffffffffffffffffffffffffffffffffffff02191690556001820160006101000a81549073ffffffffffffffffffffffffffffffffffffffff021916905560028201600061090a9190610917565b506003016108a3565b5090565b50805461092390610d79565b6000825580601f106109355750610954565b601f0160209004906000526020600020908101906109539190610957565b5b50565b5b80821115610970576000816000905550600101610958565b5090565b600081519050919050565b600082825260208201905092915050565b6000819050602082019050919050565b600073ffffffffffffffffffffffffffffffffffffffff82169050919050565b60006109cb826109a0565b9050919050565b6109db816109c0565b82525050565b600081519050919050565b600082825260208201905092915050565b60005b83811015610a1b578082015181840152602081019050610a00565b60008484015250505050565b6000601f19601f8301169050919050565b6000610a43826109e1565b610a4d81856109ec565b9350610a5d8185602086016109fd565b610a6681610a27565b840191505092915050565b6000606083016000830151610a8960008601826109d2565b506020830151610a9c60208601826109d2565b5060408301518482036040860152610ab48282610a38565b9150508091505092915050565b6000610acd8383610a71565b905092915050565b6000602082019050919050565b6000610aed82610974565b610af7818561097f565b935083602082028501610b0985610990565b8060005b85811015610b455784840389528151610b268582610ac1565b9450610b3183610ad5565b925060208a01995050600181019050610b0d565b50829750879550505050505092915050565b60006020820190508181036000830152610b718184610ae2565b905092915050565b6000604051905090565b600080fd5b600080fd5b610b96816109c0565b8114610ba157600080fd5b50565b600081359050610bb381610b8d565b92915050565b600080fd5b600080fd5b7f4e487b7100000000000000000000000000000000000000000000000000000000600052604160045260246000fd5b610bfb82610a27565b810181811067ffffffffffffffff82111715610c1a57610c19610bc3565b5b80604052505050565b6000610c2d610b79565b9050610c398282610bf2565b919050565b600067ffffffffffffffff821115610c5957610c58610bc3565b5b610c6282610a27565b9050602081019050919050565b82818337600083830152505050565b6000610c91610c8c84610c3e565b610c23565b905082815260208101848484011115610cad57610cac610bbe565b5b610cb8848285610c6f565b509392505050565b600082601f830112610cd557610cd4610bb9565b5b8135610ce5848260208601610c7e565b91505092915050565b60008060408385031215610d0557610d04610b83565b5b6000610d1385828601610ba4565b925050602083013567ffffffffffffffff811115610d3457610d33610b88565b5b610d4085828601610cc0565b9150509250929050565b7f4e487b7100000000000000000000000000000000000000000000000000000000600052602260045260246000fd5b60006002820490506001821680610d9157607f821691505b602082108103610da457610da3610d4a565b5b50919050565b60008190508160005260206000209050919050565b60006020601f8301049050919050565b600082821b905092915050565b600060088302610e0c7fffffffffffffffffffffffffffffffffffffffffffffffffffffffffffffffff82610dcf565b610e168683610dcf565b95508019841693508086168417925050509392505050565b6000819050919050565b6000819050919050565b6000610e5d610e58610e5384610e2e565b610e38565b610e2e565b9050919050565b6000819050919050565b610e7783610e42565b610e8b610e8382610e64565b848454610ddc565b825550505050565b600090565b610ea0610e93565b610eab818484610e6e565b505050565b5b81811015610ecf57610ec4600082610e98565b600181019050610eb1565b5050565b601f821115610f1457610ee581610daa565b610eee84610dbf565b81016020851015610efd578190505b610f11610f0985610dbf565b830182610eb0565b50505b505050565b600082821c905092915050565b6000610f3760001984600802610f19565b1980831691505092915050565b6000610f508383610f26565b9150826002028217905092915050565b610f69826109e1565b67ffffffffffffffff811115610f8257610f81610bc3565b5b610f8c8254610d79565b610f97828285610ed3565b600060209050601f831160018114610fca5760008415610fb8578287015190505b610fc28582610f44565b86555061102a565b601f198416610fd886610daa565b60005b8281101561100057848901518255600182019150602085019450602081019050610fdb565b8683101561101d5784890151611019601f891682610f26565b8355505b6001600288020188555050505b505050505050565b60008154905061104181610d79565b9050919050565b81810361105657505061112e565b61105f82611032565b67ffffffffffffffff81111561107857611077610bc3565b5b6110828254610d79565b61108d828285610ed3565b6000601f8311600181146110bc57600084156110aa578287015490505b6110b48582610f44565b865550611127565b601f1984166110ca87610daa565b96506110d586610daa565b60005b828110156110fd578489015482556001820191506001850194506020810190506110d8565b8683101561111a5784890154611116601f891682610f26565b8355505b6001600288020188555050505b5050505050505b56fea2646970667358221220fa25ffec2d7ea3e405b3b0ecd8786d9da4ea0cd6f48cf06db029b0f731a9c8e864736f6c63430008110033",
  "linkReferences": {},
  "deployedLinkReferences": {}
}